{
  "_format": "hh-sol-artifact-1",
  "contractName": "OracularProtocol",
  "sourceName": "contracts/OracularProtocol.sol",
  "abi": [
    {
      "inputs": [],
      "stateMutability": "nonpayable",
      "type": "constructor"
    },
    {
      "anonymous": false,
      "inputs": [
        {
          "indexed": true,
          "internalType": "address",
          "name": "owner",
          "type": "address"
        },
        {
          "indexed": true,
          "internalType": "address",
          "name": "approved",
          "type": "address"
        },
        {
          "indexed": true,
          "internalType": "uint256",
          "name": "tokenId",
          "type": "uint256"
        }
      ],
      "name": "Approval",
      "type": "event"
    },
    {
      "anonymous": false,
      "inputs": [
        {
          "indexed": true,
          "internalType": "address",
          "name": "owner",
          "type": "address"
        },
        {
          "indexed": true,
          "internalType": "address",
          "name": "operator",
          "type": "address"
        },
        {
          "indexed": false,
          "internalType": "bool",
          "name": "approved",
          "type": "bool"
        }
      ],
      "name": "ApprovalForAll",
      "type": "event"
    },
    {
      "anonymous": false,
      "inputs": [
        {
          "indexed": false,
          "internalType": "uint256",
          "name": "_fromTokenId",
          "type": "uint256"
        },
        {
          "indexed": false,
          "internalType": "uint256",
          "name": "_toTokenId",
          "type": "uint256"
        }
      ],
      "name": "BatchMetadataUpdate",
      "type": "event"
    },
    {
      "anonymous": false,
      "inputs": [
        {
          "indexed": false,
          "internalType": "address",
          "name": "tokenOwner",
          "type": "address"
        },
        {
          "indexed": false,
          "internalType": "uint256",
          "name": "tokenId",
          "type": "uint256"
        }
      ],
      "name": "CookieMinted",
      "type": "event"
    },
    {
      "anonymous": false,
      "inputs": [
        {
          "indexed": false,
          "internalType": "address",
          "name": "tokenOwner",
          "type": "address"
        },
        {
          "indexed": false,
          "internalType": "uint256",
          "name": "tokenId",
          "type": "uint256"
        },
        {
          "indexed": false,
          "internalType": "address",
          "name": "gossipNetworkId",
          "type": "address"
        }
      ],
      "name": "CookieSentToGossip",
      "type": "event"
    },
    {
      "anonymous": false,
      "inputs": [
        {
          "indexed": false,
          "internalType": "uint256",
          "name": "_tokenId",
          "type": "uint256"
        }
      ],
      "name": "MetadataUpdate",
      "type": "event"
    },
    {
      "anonymous": false,
      "inputs": [
        {
          "indexed": true,
          "internalType": "address",
          "name": "from",
          "type": "address"
        },
        {
          "indexed": true,
          "internalType": "address",
          "name": "to",
          "type": "address"
        },
        {
          "indexed": true,
          "internalType": "uint256",
          "name": "tokenId",
          "type": "uint256"
        }
      ],
      "name": "Transfer",
      "type": "event"
    },
    {
      "inputs": [
        {
          "internalType": "address",
          "name": "to",
          "type": "address"
        },
        {
          "internalType": "uint256",
          "name": "tokenId",
          "type": "uint256"
        }
      ],
      "name": "approve",
      "outputs": [],
      "stateMutability": "nonpayable",
      "type": "function"
    },
    {
      "inputs": [
        {
          "internalType": "address",
          "name": "owner",
          "type": "address"
        }
      ],
      "name": "balanceOf",
      "outputs": [
        {
          "internalType": "uint256",
          "name": "",
          "type": "uint256"
        }
      ],
      "stateMutability": "view",
      "type": "function"
    },
    {
      "inputs": [
        {
          "internalType": "uint256",
          "name": "tokenId",
          "type": "uint256"
        }
      ],
      "name": "getApproved",
      "outputs": [
        {
          "internalType": "address",
          "name": "",
          "type": "address"
        }
      ],
      "stateMutability": "view",
      "type": "function"
    },
    {
      "inputs": [
        {
          "internalType": "address",
          "name": "owner",
          "type": "address"
        },
        {
          "internalType": "address",
          "name": "operator",
          "type": "address"
        }
      ],
      "name": "isApprovedForAll",
      "outputs": [
        {
          "internalType": "bool",
          "name": "",
          "type": "bool"
        }
      ],
      "stateMutability": "view",
      "type": "function"
    },
    {
      "inputs": [
        {
          "internalType": "string",
          "name": "_metadata",
          "type": "string"
        }
      ],
      "name": "mintMyCookie",
      "outputs": [],
      "stateMutability": "nonpayable",
      "type": "function"
    },
    {
      "inputs": [],
      "name": "name",
      "outputs": [
        {
          "internalType": "string",
          "name": "",
          "type": "string"
        }
      ],
      "stateMutability": "view",
      "type": "function"
    },
    {
      "inputs": [
        {
          "internalType": "uint256",
          "name": "tokenId",
          "type": "uint256"
        }
      ],
      "name": "ownerOf",
      "outputs": [
        {
          "internalType": "address",
          "name": "",
          "type": "address"
        }
      ],
      "stateMutability": "view",
      "type": "function"
    },
    {
      "inputs": [
        {
          "internalType": "address",
          "name": "to",
          "type": "address"
        },
        {
          "internalType": "string",
          "name": "uri",
          "type": "string"
        }
      ],
      "name": "safeMint",
      "outputs": [],
      "stateMutability": "nonpayable",
      "type": "function"
    },
    {
      "inputs": [
        {
          "internalType": "address",
          "name": "from",
          "type": "address"
        },
        {
          "internalType": "address",
          "name": "to",
          "type": "address"
        },
        {
          "internalType": "uint256",
          "name": "tokenId",
          "type": "uint256"
        }
      ],
      "name": "safeTransferFrom",
      "outputs": [],
      "stateMutability": "nonpayable",
      "type": "function"
    },
    {
      "inputs": [
        {
          "internalType": "address",
          "name": "from",
          "type": "address"
        },
        {
          "internalType": "address",
          "name": "to",
          "type": "address"
        },
        {
          "internalType": "uint256",
          "name": "tokenId",
          "type": "uint256"
        },
        {
          "internalType": "bytes",
          "name": "data",
          "type": "bytes"
        }
      ],
      "name": "safeTransferFrom",
      "outputs": [],
      "stateMutability": "nonpayable",
      "type": "function"
    },
    {
      "inputs": [
        {
          "internalType": "uint256",
          "name": "cookieID",
          "type": "uint256"
        }
      ],
      "name": "sendCookieToGossipNetwork",
      "outputs": [],
      "stateMutability": "nonpayable",
      "type": "function"
    },
    {
      "inputs": [
        {
          "internalType": "address",
          "name": "operator",
          "type": "address"
        },
        {
          "internalType": "bool",
          "name": "approved",
          "type": "bool"
        }
      ],
      "name": "setApprovalForAll",
      "outputs": [],
      "stateMutability": "nonpayable",
      "type": "function"
    },
    {
      "inputs": [
        {
          "internalType": "bytes4",
          "name": "interfaceId",
          "type": "bytes4"
        }
      ],
      "name": "supportsInterface",
      "outputs": [
        {
          "internalType": "bool",
          "name": "",
          "type": "bool"
        }
      ],
      "stateMutability": "view",
      "type": "function"
    },
    {
      "inputs": [],
      "name": "symbol",
      "outputs": [
        {
          "internalType": "string",
          "name": "",
          "type": "string"
        }
      ],
      "stateMutability": "view",
      "type": "function"
    },
    {
      "inputs": [
        {
          "internalType": "uint256",
          "name": "tokenId",
          "type": "uint256"
        }
      ],
      "name": "tokenURI",
      "outputs": [
        {
          "internalType": "string",
          "name": "",
          "type": "string"
        }
      ],
      "stateMutability": "view",
      "type": "function"
    },
    {
      "inputs": [
        {
          "internalType": "address",
          "name": "from",
          "type": "address"
        },
        {
          "internalType": "address",
          "name": "to",
          "type": "address"
        },
        {
          "internalType": "uint256",
          "name": "tokenId",
          "type": "uint256"
        }
      ],
      "name": "transferFrom",
      "outputs": [],
      "stateMutability": "nonpayable",
      "type": "function"
    }
  ],
  "bytecode": "0x60806040523480156200001157600080fd5b506040518060400160405280600d81526020016c466f7274756e65436f6f6b696560981b8152506040518060400160405280600381526020016246434f60e81b815250816000908162000065919062000127565b50600162000074828262000127565b5050600160075550620001f3565b634e487b7160e01b600052604160045260246000fd5b600181811c90821680620000ad57607f821691505b602082108103620000ce57634e487b7160e01b600052602260045260246000fd5b50919050565b601f8211156200012257600081815260208120601f850160051c81016020861015620000fd5750805b601f850160051c820191505b818110156200011e5782815560010162000109565b5050505b505050565b81516001600160401b0381111562000143576200014362000082565b6200015b8162000154845462000098565b84620000d4565b602080601f8311600181146200019357600084156200017a5750858301515b600019600386901b1c1916600185901b1785556200011e565b600085815260208120601f198616915b82811015620001c457888601518255948401946001909101908401620001a3565b5085821015620001e35787850151600019600388901b60f8161c191681555b5050505050600190811b01905550565b61448380620002036000396000f3fe60806040523480156200001157600080fd5b5060043610620001155760003560e01c806370a0823111620000a3578063c87b56dd116200006e578063c87b56dd1462000262578063d204c45e1462000279578063e985e9c51462000290578063f8c58ff114620002cf57600080fd5b806370a08231146200020457806395d89b41146200022a578063a22cb4651462000234578063b88d4fde146200024b57600080fd5b806323b872dd11620000e457806323b872dd14620001a857806342842e0e14620001bf5780636352211e14620001d65780636b7dddd914620001ed57600080fd5b806301ffc9a7146200011a57806306fdde031462000146578063081812fc146200015f578063095ea7b3146200018f575b600080fd5b620001316200012b366004620016e7565b620002e6565b60405190151581526020015b60405180910390f35b62000150620002f9565b6040516200013d91906200175b565b620001766200017036600462001770565b62000393565b6040516001600160a01b0390911681526020016200013d565b620001a6620001a0366004620017a7565b620003bc565b005b620001a6620001b9366004620017d4565b620004fc565b620001a6620001d0366004620017d4565b62000579565b62000176620001e736600462001770565b62000596565b620001a6620001fe36600462001770565b620005fd565b6200021b6200021536600462001815565b620007c9565b6040519081526020016200013d565b6200015062000851565b620001a66200024536600462001833565b62000862565b620001a66200025c36600462001906565b62000873565b620001506200027336600462001770565b620008f7565b620001a66200028a366004620019ae565b62000904565b62000131620002a136600462001a02565b6001600160a01b03918216600090815260056020908152604080832093909416825291909152205460ff1690565b620001a6620002e036600462001a3a565b62000935565b6000620002f38262000a08565b92915050565b6060600080546200030a9062001a73565b80601f0160208091040260200160405190810160405280929190818152602001828054620003389062001a73565b8015620003895780601f106200035d5761010080835404028352916020019162000389565b820191906000526020600020905b8154815290600101906020018083116200036b57829003601f168201915b5050505050905090565b6000620003a08262000a30565b506000908152600460205260409020546001600160a01b031690565b6000620003c98262000596565b9050806001600160a01b0316836001600160a01b0316036200043c5760405162461bcd60e51b815260206004820152602160248201527f4552433732313a20617070726f76616c20746f2063757272656e74206f776e656044820152603960f91b60648201526084015b60405180910390fd5b336001600160a01b03821614806200047757506001600160a01b038116600090815260056020908152604080832033845290915290205460ff165b620004eb5760405162461bcd60e51b815260206004820152603d60248201527f4552433732313a20617070726f76652063616c6c6572206973206e6f7420746f60448201527f6b656e206f776e6572206f7220617070726f76656420666f7220616c6c000000606482015260840162000433565b620004f7838362000a99565b505050565b62000508338262000b09565b6200056c5760405162461bcd60e51b815260206004820152602d60248201527f4552433732313a2063616c6c6572206973206e6f7420746f6b656e206f776e6560448201526c1c881bdc88185c1c1c9bdd9959609a1b606482015260840162000433565b620004f783838362000b8e565b620004f78383836040518060200160405280600081525062000873565b6000818152600260205260408120546001600160a01b031680620002f35760405162461bcd60e51b815260206004820152601860248201527f4552433732313a20696e76616c696420746f6b656e2049440000000000000000604482015260640162000433565b6000818152600860205260409020546001600160a01b0316156200068a5760405162461bcd60e51b815260206004820152603160248201527f5468697320636f6f6b696520616c726561647920657869737473206f6e20746860448201527f6520476f73736970204e6574776f726b21000000000000000000000000000000606482015260840162000433565b60004233604051602001620006bb92919091825260601b6bffffffffffffffffffffffff1916602082015260340190565b60405160208183030381529060405280519060200120905060006200074760008360405180602001620006ee90620016c2565b601f1982820381018352601f90910116604081815260208201899052339082015260600160408051601f198184030181529082905262000732929160200162001aaf565b60405160208183030381529060405262000d78565b90506200075633828562000579565b60008381526008602090815260409182902080546001600160a01b0319166001600160a01b0385169081179091558251338152918201869052918101919091527f9a032bb4300b13578cc6febf6bab5b1f24627ffcc2548f2f41e89e508a3df1c4906060015b60405180910390a1505050565b60006001600160a01b038216620008355760405162461bcd60e51b815260206004820152602960248201527f4552433732313a2061646472657373207a65726f206973206e6f7420612076616044820152683634b21037bbb732b960b91b606482015260840162000433565b506001600160a01b031660009081526003602052604090205490565b6060600180546200030a9062001a73565b6200086f33838362000e89565b5050565b6200087f338362000b09565b620008e35760405162461bcd60e51b815260206004820152602d60248201527f4552433732313a2063616c6c6572206973206e6f7420746f6b656e206f776e6560448201526c1c881bdc88185c1c1c9bdd9959609a1b606482015260840162000433565b620008f18484848462000f59565b50505050565b6060620002f38262000f93565b6007805460009182620009178362001af8565b919050559050620009298382620010ac565b620004f78183620010c8565b60075433906000906200094b9060019062001b14565b90506000835111620009a05760405162461bcd60e51b815260206004820152601160248201527f4d6574616461746120697320656d707479000000000000000000000000000000604482015260640162000433565b600081815260086020526040902080546001600160a01b0319169055620009c8828462000904565b604080516001600160a01b0384168152602081018390527f4f5c09aba770d23ee84764197aca3e24c56c433917823e78cad90965800bf87b9101620007bc565b60006001600160e01b03198216632483248360e11b1480620002f35750620002f38262001197565b6000818152600260205260409020546001600160a01b031662000a965760405162461bcd60e51b815260206004820152601860248201527f4552433732313a20696e76616c696420746f6b656e2049440000000000000000604482015260640162000433565b50565b600081815260046020526040902080546001600160a01b0319166001600160a01b038416908117909155819062000ad08262000596565b6001600160a01b03167f8c5be1e5ebec7d5bd14f71427d1e84f3dd0314c0f7b2291e5b200ac8c7c3b92560405160405180910390a45050565b60008062000b178362000596565b9050806001600160a01b0316846001600160a01b0316148062000b5f57506001600160a01b0380821660009081526005602090815260408083209388168352929052205460ff165b8062000b865750836001600160a01b031662000b7b8462000393565b6001600160a01b0316145b949350505050565b826001600160a01b031662000ba38262000596565b6001600160a01b03161462000c095760405162461bcd60e51b815260206004820152602560248201527f4552433732313a207472616e736665722066726f6d20696e636f72726563742060448201526437bbb732b960d91b606482015260840162000433565b6001600160a01b03821662000c6d5760405162461bcd60e51b8152602060048201526024808201527f4552433732313a207472616e7366657220746f20746865207a65726f206164646044820152637265737360e01b606482015260840162000433565b826001600160a01b031662000c828262000596565b6001600160a01b03161462000ce85760405162461bcd60e51b815260206004820152602560248201527f4552433732313a207472616e736665722066726f6d20696e636f72726563742060448201526437bbb732b960d91b606482015260840162000433565b600081815260046020908152604080832080546001600160a01b03199081169091556001600160a01b0387811680865260038552838620805460001901905590871680865283862080546001019055868652600290945282852080549092168417909155905184937fddf252ad1be2c89b69c2b068fc378daa952ba7f163c4a11628f55a4df523b3ef91a4505050565b60008347101562000dcc5760405162461bcd60e51b815260206004820152601d60248201527f437265617465323a20696e73756666696369656e742062616c616e6365000000604482015260640162000433565b815160000362000e1f5760405162461bcd60e51b815260206004820181905260248201527f437265617465323a2062797465636f6465206c656e677468206973207a65726f604482015260640162000433565b8282516020840186f590506001600160a01b03811662000e825760405162461bcd60e51b815260206004820152601960248201527f437265617465323a204661696c6564206f6e206465706c6f7900000000000000604482015260640162000433565b9392505050565b816001600160a01b0316836001600160a01b03160362000eec5760405162461bcd60e51b815260206004820152601960248201527f4552433732313a20617070726f766520746f2063616c6c657200000000000000604482015260640162000433565b6001600160a01b03838116600081815260056020908152604080832094871680845294825291829020805460ff191686151590811790915591519182527f17307eab39ab6107e8899845ad3d59bd9653f200f220920489ca2b5937696c31910160405180910390a3505050565b62000f6684848462000b8e565b62000f7484848484620011ea565b620008f15760405162461bcd60e51b8152600401620004339062001b2a565b606062000fa08262000a30565b6000828152600660205260408120805462000fbb9062001a73565b80601f016020809104026020016040519081016040528092919081815260200182805462000fe99062001a73565b80156200103a5780601f106200100e576101008083540402835291602001916200103a565b820191906000526020600020905b8154815290600101906020018083116200101c57829003601f168201915b5050505050905060006200105960408051602081019091526000815290565b905080516000036200106c575092915050565b815115620010a15780826040516020016200108992919062001aaf565b60405160208183030381529060405292505050919050565b62000b8684620012f8565b6200086f82826040518060200160405280600081525062001374565b6000828152600260205260409020546001600160a01b0316620011455760405162461bcd60e51b815260206004820152602e60248201527f45524337323155524953746f726167653a2055524920736574206f66206e6f6e60448201526d32bc34b9ba32b73a103a37b5b2b760911b606482015260840162000433565b60008281526006602052604090206200115f828262001bd9565b506040518281527ff8e1a15aba9398e019f0b49df1a4fde98ee17ae345cb5f6b5e2c27f5033e8ce79060200160405180910390a15050565b60006001600160e01b031982166380ac58cd60e01b1480620011c957506001600160e01b03198216635b5e139f60e01b145b80620002f357506301ffc9a760e01b6001600160e01b0319831614620002f3565b60006001600160a01b0384163b15620012ed57604051630a85bd0160e11b81526001600160a01b0385169063150b7a02906200123190339089908890889060040162001ca6565b6020604051808303816000875af19250505080156200126f575060408051601f3d908101601f191682019092526200126c9181019062001ce4565b60015b620012d2573d808015620012a0576040519150601f19603f3d011682016040523d82523d6000602084013e620012a5565b606091505b508051600003620012ca5760405162461bcd60e51b8152600401620004339062001b2a565b805181602001fd5b6001600160e01b031916630a85bd0160e11b14905062000b86565b506001949350505050565b6060620013058262000a30565b60006200131d60408051602081019091526000815290565b905060008151116200133f576040518060200160405280600081525062000e82565b806200134b84620013ae565b6040516020016200135e92919062001aaf565b6040516020818303038152906040529392505050565b62001380838362001448565b6200138f6000848484620011ea565b620004f75760405162461bcd60e51b8152600401620004339062001b2a565b60606000620013bd83620015d9565b600101905060008167ffffffffffffffff811115620013e057620013e062001873565b6040519080825280601f01601f1916602001820160405280156200140b576020820181803683370190505b5090508181016020015b600019016f181899199a1a9b1b9c1cb0b131b232b360811b600a86061a8153600a85049450846200141557509392505050565b6001600160a01b038216620014a05760405162461bcd60e51b815260206004820181905260248201527f4552433732313a206d696e7420746f20746865207a65726f2061646472657373604482015260640162000433565b6000818152600260205260409020546001600160a01b031615620015075760405162461bcd60e51b815260206004820152601c60248201527f4552433732313a20746f6b656e20616c7265616479206d696e74656400000000604482015260640162000433565b6000818152600260205260409020546001600160a01b0316156200156e5760405162461bcd60e51b815260206004820152601c60248201527f4552433732313a20746f6b656e20616c7265616479206d696e74656400000000604482015260640162000433565b6001600160a01b038216600081815260036020908152604080832080546001019055848352600290915280822080546001600160a01b0319168417905551839291907fddf252ad1be2c89b69c2b068fc378daa952ba7f163c4a11628f55a4df523b3ef908290a45050565b6000807a184f03e93ff9f4daa797ed6e38ed64bf6a1f010000000000000000831062001623577a184f03e93ff9f4daa797ed6e38ed64bf6a1f010000000000000000830492506040015b6d04ee2d6d415b85acef8100000000831062001650576d04ee2d6d415b85acef8100000000830492506020015b662386f26fc1000083106200166f57662386f26fc10000830492506010015b6305f5e100831062001688576305f5e100830492506008015b61271083106200169d57612710830492506004015b60648310620016b0576064830492506002015b600a8310620002f35760010192915050565b6127498062001d0583390190565b6001600160e01b03198116811462000a9657600080fd5b600060208284031215620016fa57600080fd5b813562000e8281620016d0565b60005b83811015620017245781810151838201526020016200170a565b50506000910152565b600081518084526200174781602086016020860162001707565b601f01601f19169290920160200192915050565b60208152600062000e8260208301846200172d565b6000602082840312156200178357600080fd5b5035919050565b80356001600160a01b0381168114620017a257600080fd5b919050565b60008060408385031215620017bb57600080fd5b620017c6836200178a565b946020939093013593505050565b600080600060608486031215620017ea57600080fd5b620017f5846200178a565b925062001805602085016200178a565b9150604084013590509250925092565b6000602082840312156200182857600080fd5b62000e82826200178a565b600080604083850312156200184757600080fd5b62001852836200178a565b9150602083013580151581146200186857600080fd5b809150509250929050565b634e487b7160e01b600052604160045260246000fd5b600067ffffffffffffffff80841115620018a757620018a762001873565b604051601f8501601f19908116603f01168101908282118183101715620018d257620018d262001873565b81604052809350858152868686011115620018ec57600080fd5b858560208301376000602087830101525050509392505050565b600080600080608085870312156200191d57600080fd5b62001928856200178a565b935062001938602086016200178a565b925060408501359150606085013567ffffffffffffffff8111156200195c57600080fd5b8501601f810187136200196e57600080fd5b6200197f8782356020840162001889565b91505092959194509250565b600082601f8301126200199d57600080fd5b62000e828383356020850162001889565b60008060408385031215620019c257600080fd5b620019cd836200178a565b9150602083013567ffffffffffffffff811115620019ea57600080fd5b620019f8858286016200198b565b9150509250929050565b6000806040838503121562001a1657600080fd5b62001a21836200178a565b915062001a31602084016200178a565b90509250929050565b60006020828403121562001a4d57600080fd5b813567ffffffffffffffff81111562001a6557600080fd5b62000b86848285016200198b565b600181811c9082168062001a8857607f821691505b60208210810362001aa957634e487b7160e01b600052602260045260246000fd5b50919050565b6000835162001ac381846020880162001707565b83519083019062001ad981836020880162001707565b01949350505050565b634e487b7160e01b600052601160045260246000fd5b60006001820162001b0d5762001b0d62001ae2565b5060010190565b81810381811115620002f357620002f362001ae2565b60208082526032908201527f4552433732313a207472616e7366657220746f206e6f6e20455243373231526560408201527f63656976657220696d706c656d656e7465720000000000000000000000000000606082015260800190565b601f821115620004f757600081815260208120601f850160051c8101602086101562001bb05750805b601f850160051c820191505b8181101562001bd15782815560010162001bbc565b505050505050565b815167ffffffffffffffff81111562001bf65762001bf662001873565b62001c0e8162001c07845462001a73565b8462001b87565b602080601f83116001811462001c46576000841562001c2d5750858301515b600019600386901b1c1916600185901b17855562001bd1565b600085815260208120601f198616915b8281101562001c775788860151825594840194600190910190840162001c56565b508582101562001c965787850151600019600388901b60f8161c191681555b5050505050600190811b01905550565b60006001600160a01b0380871683528086166020840152508360408301526080606083015262001cda60808301846200172d565b9695505050505050565b60006020828403121562001cf757600080fd5b815162000e8281620016d056fe60806040523480156200001157600080fd5b5060405162002749380380620027498339810160408190526200003491620000c8565b6040518060400160405280600d81526020016c466f7274756e65436f6f6b696560981b8152506040518060400160405280600381526020016246434f60e81b8152508160009081620000879190620001ac565b506001620000968282620001ac565b505050600a91909155600b80546001600160a01b0319166001600160a01b0390921691909117905546600d5562000278565b60008060408385031215620000dc57600080fd5b825160208401519092506001600160a01b0381168114620000fc57600080fd5b809150509250929050565b634e487b7160e01b600052604160045260246000fd5b600181811c908216806200013257607f821691505b6020821081036200015357634e487b7160e01b600052602260045260246000fd5b50919050565b601f821115620001a757600081815260208120601f850160051c81016020861015620001825750805b601f850160051c820191505b81811015620001a3578281556001016200018e565b5050505b505050565b81516001600160401b03811115620001c857620001c862000107565b620001e081620001d984546200011d565b8462000159565b602080601f831160018114620002185760008415620001ff5750858301515b600019600386901b1c1916600185901b178555620001a3565b600085815260208120601f198616915b82811015620002495788860151825594840194600190910190840162000228565b5085821015620002685787850151600019600388901b60f8161c191681555b5050505050600190811b01905550565b6124c180620002886000396000f3fe60806040526004361061018b5760003560e01c80634f6ccce7116100d657806395d89b411161007f578063c87b56dd11610059578063c87b56dd14610450578063e985e9c514610470578063fbd835ba146104b957600080fd5b806395d89b41146103fb578063a22cb46514610410578063b88d4fde1461043057600080fd5b806370a08231116100b057806370a08231146103a65780637ae18d77146103c6578063945c8ec8146103e857600080fd5b80634f6ccce7146103515780636352211e146103715780636c9c2faf1461039157600080fd5b806323b872dd11610138578063382a0af811610112578063382a0af8146102fa5780633b6dba031461030f57806342842e0e1461033157600080fd5b806323b872dd146102a55780632e645771146102c55780632f745c59146102da57600080fd5b8063095ea7b311610169578063095ea7b31461021f578063150b7a021461024157806318160ddd1461028657600080fd5b806301ffc9a71461019057806306fdde03146101c5578063081812fc146101e7575b600080fd5b34801561019c57600080fd5b506101b06101ab366004611d4c565b6104d9565b60405190151581526020015b60405180910390f35b3480156101d157600080fd5b506101da6104ea565b6040516101bc9190611db9565b3480156101f357600080fd5b50610207610202366004611dcc565b61057c565b6040516001600160a01b0390911681526020016101bc565b34801561022b57600080fd5b5061023f61023a366004611e01565b6105a3565b005b34801561024d57600080fd5b5061026d61025c366004611e2b565b630a85bd0160e11b95945050505050565b6040516001600160e01b031990911681526020016101bc565b34801561029257600080fd5b506008545b6040519081526020016101bc565b3480156102b157600080fd5b5061023f6102c0366004611ec6565b6106bd565b3480156102d157600080fd5b5061023f610734565b3480156102e657600080fd5b506102976102f5366004611e01565b610803565b34801561030657600080fd5b5061023f610899565b34801561031b57600080fd5b50610324610964565b6040516101bc9190611f02565b34801561033d57600080fd5b5061023f61034c366004611ec6565b610b2e565b34801561035d57600080fd5b5061029761036c366004611dcc565b610b49565b34801561037d57600080fd5b5061020761038c366004611dcc565b610bdc565b34801561039d57600080fd5b50610297610c41565b3480156103b257600080fd5b506102976103c1366004611fa7565b610c51565b3480156103d257600080fd5b506103db610cd7565b6040516101bc9190611fc2565b61023f6103f636600461201f565b610d38565b34801561040757600080fd5b506101da610e58565b34801561041c57600080fd5b5061023f61042b36600461203a565b610e67565b34801561043c57600080fd5b5061023f61044b3660046120f9565b610e76565b34801561045c57600080fd5b506101da61046b366004611dcc565b610ef4565b34801561047c57600080fd5b506101b061048b366004612175565b6001600160a01b03918216600090815260056020908152604080832093909416825291909152205460ff1690565b3480156104c557600080fd5b5061023f6104d436600461219f565b610f68565b60006104e482611042565b92915050565b6060600080546104f9906121e8565b80601f0160208091040260200160405190810160405280929190818152602001828054610525906121e8565b80156105725780601f1061054757610100808354040283529160200191610572565b820191906000526020600020905b81548152906001019060200180831161055557829003601f168201915b5050505050905090565b600061058782611067565b506000908152600460205260409020546001600160a01b031690565b60006105ae82610bdc565b9050806001600160a01b0316836001600160a01b0316036106205760405162461bcd60e51b815260206004820152602160248201527f4552433732313a20617070726f76616c20746f2063757272656e74206f776e656044820152603960f91b60648201526084015b60405180910390fd5b336001600160a01b038216148061063c575061063c813361048b565b6106ae5760405162461bcd60e51b815260206004820152603d60248201527f4552433732313a20617070726f76652063616c6c6572206973206e6f7420746f60448201527f6b656e206f776e6572206f7220617070726f76656420666f7220616c6c0000006064820152608401610617565b6106b883836110ce565b505050565b6106c7338261113c565b6107295760405162461bcd60e51b815260206004820152602d60248201527f4552433732313a2063616c6c6572206973206e6f7420746f6b656e206f776e6560448201526c1c881bdc88185c1c1c9bdd9959609a1b6064820152608401610617565b6106b88383836111bb565b600b546001600160a01b031633146107a15760405162461bcd60e51b815260206004820152602a60248201527f4f6e6c792074686520436f6f6b6965204f776e65722063616e20737461727420604482015269074686520476f737369760b41b6064820152608401610617565b600e5460ff16156107f45760405162461bcd60e51b815260206004820152601b60248201527f476f737369702068617320616c726561647920737461727465642e00000000006044820152606401610617565b600e805460ff19166001179055565b600061080e83610c51565b82106108705760405162461bcd60e51b815260206004820152602b60248201527f455243373231456e756d657261626c653a206f776e657220696e646578206f7560448201526a74206f6620626f756e647360a81b6064820152608401610617565b506001600160a01b03919091166000908152600660209081526040808320938352929052205490565b600b546001600160a01b031633146109065760405162461bcd60e51b815260206004820152602a60248201527f4f6e6c792074686520436f6f6b6965204f776e65722063616e20737461727420604482015269074686520476f737369760b41b6064820152608401610617565b600e5460ff166109585760405162461bcd60e51b815260206004820181905260248201527f476f7373697020686173206e6f74206265656e2073746172746564207965742e6044820152606401610617565b600e805460ff19169055565b426000908152600f60205260408120546060919067ffffffffffffffff8111156109905761099061206d565b6040519080825280602002602001820160405280156109c357816020015b60608152602001906001900390816109ae5790505b50905060005b426000908152600f6020526040902054811015610b285760408051600180825281830190925290816020015b60608152602001906001900390816109f557905050828281518110610a1c57610a1c61221c565b6020026020010181905250600f60004281526020019081526020016000208181548110610a4b57610a4b61221c565b906000526020600020018054610a60906121e8565b80601f0160208091040260200160405190810160405280929190818152602001828054610a8c906121e8565b8015610ad95780601f10610aae57610100808354040283529160200191610ad9565b820191906000526020600020905b815481529060010190602001808311610abc57829003601f168201915b5050505050828281518110610af057610af061221c565b6020026020010151600081518110610b0a57610b0a61221c565b60200260200101819052508080610b2090612248565b9150506109c9565b50919050565b6106b883838360405180602001604052806000815250610e76565b6000610b5460085490565b8210610bb75760405162461bcd60e51b815260206004820152602c60248201527f455243373231456e756d657261626c653a20676c6f62616c20696e646578206f60448201526b7574206f6620626f756e647360a01b6064820152608401610617565b60088281548110610bca57610bca61221c565b90600052602060002001549050919050565b6000818152600260205260408120546001600160a01b0316806104e45760405162461bcd60e51b815260206004820152601860248201527f4552433732313a20696e76616c696420746f6b656e20494400000000000000006044820152606401610617565b6000610c4c60085490565b905090565b60006001600160a01b038216610cbb5760405162461bcd60e51b815260206004820152602960248201527f4552433732313a2061646472657373207a65726f206973206e6f7420612076616044820152683634b21037bbb732b960b91b6064820152608401610617565b506001600160a01b031660009081526003602052604090205490565b6060600c80548060200260200160405190810160405280929190818152602001828054801561057257602002820191906000526020600020905b81546001600160a01b03168152600190910190602001808311610d11575050505050905090565b600b546001600160a01b03163303610da35760405162461bcd60e51b815260206004820152602860248201527f596f752063616e6e6f742073706563756c617465206f6e20796f7572206f776e60448201526720636f6f6b69652160c01b6064820152608401610617565b600e5460ff16610e1b5760405162461bcd60e51b815260206004820152603260248201527f54686520636f6f6b6965206f776e65722068617320636c6f736564207468697360448201527f2074687265616420666f7220676f7373697000000000000000000000000000006064820152608401610617565b6040805133815282151560208201527f57bf161eca343edadb6bfd98988b22edbe95c506885f2e773f815c6c23934c0f910160405180910390a150565b6060600180546104f9906121e8565b610e723383836113a8565b5050565b610e80338361113c565b610ee25760405162461bcd60e51b815260206004820152602d60248201527f4552433732313a2063616c6c6572206973206e6f7420746f6b656e206f776e6560448201526c1c881bdc88185c1c1c9bdd9959609a1b6064820152608401610617565b610eee84848484611476565b50505050565b6060610eff82611067565b6000610f1660408051602081019091526000815290565b90506000815111610f365760405180602001604052806000815250610f61565b80610f40846114f4565b604051602001610f51929190612261565b6040516020818303038152906040525b9392505050565b600e5460ff16610fe05760405162461bcd60e51b815260206004820152603560248201527f506c65617365207761697420666f722074686520436f6f6b6965204f776e657260448201527f20746f2073746172742074686520476f737369702e00000000000000000000006064820152608401610617565b6040518060400160405280610fff336001600160a01b03166014611587565b60405160200161100f9190612290565b60408051601f198184030181529181529082526020918201849052426000908152600f9092529020610e72916002611c79565b60006001600160e01b0319821663780e9d6360e01b14806104e457506104e482611723565b6000818152600260205260409020546001600160a01b03166110cb5760405162461bcd60e51b815260206004820152601860248201527f4552433732313a20696e76616c696420746f6b656e20494400000000000000006044820152606401610617565b50565b600081815260046020526040902080546001600160a01b0319166001600160a01b038416908117909155819061110382610bdc565b6001600160a01b03167f8c5be1e5ebec7d5bd14f71427d1e84f3dd0314c0f7b2291e5b200ac8c7c3b92560405160405180910390a45050565b60008061114883610bdc565b9050806001600160a01b0316846001600160a01b0316148061118f57506001600160a01b0380821660009081526005602090815260408083209388168352929052205460ff165b806111b35750836001600160a01b03166111a88461057c565b6001600160a01b0316145b949350505050565b826001600160a01b03166111ce82610bdc565b6001600160a01b0316146112325760405162461bcd60e51b815260206004820152602560248201527f4552433732313a207472616e736665722066726f6d20696e636f72726563742060448201526437bbb732b960d91b6064820152608401610617565b6001600160a01b0382166112945760405162461bcd60e51b8152602060048201526024808201527f4552433732313a207472616e7366657220746f20746865207a65726f206164646044820152637265737360e01b6064820152608401610617565b6112a18383836001611773565b826001600160a01b03166112b482610bdc565b6001600160a01b0316146113185760405162461bcd60e51b815260206004820152602560248201527f4552433732313a207472616e736665722066726f6d20696e636f72726563742060448201526437bbb732b960d91b6064820152608401610617565b600081815260046020908152604080832080546001600160a01b03199081169091556001600160a01b0387811680865260038552838620805460001901905590871680865283862080546001019055868652600290945282852080549092168417909155905184937fddf252ad1be2c89b69c2b068fc378daa952ba7f163c4a11628f55a4df523b3ef91a4505050565b816001600160a01b0316836001600160a01b0316036114095760405162461bcd60e51b815260206004820152601960248201527f4552433732313a20617070726f766520746f2063616c6c6572000000000000006044820152606401610617565b6001600160a01b03838116600081815260056020908152604080832094871680845294825291829020805460ff191686151590811790915591519182527f17307eab39ab6107e8899845ad3d59bd9653f200f220920489ca2b5937696c31910160405180910390a3505050565b6114818484846111bb565b61148d8484848461177f565b610eee5760405162461bcd60e51b815260206004820152603260248201527f4552433732313a207472616e7366657220746f206e6f6e20455243373231526560448201527131b2b4bb32b91034b6b83632b6b2b73a32b960711b6064820152608401610617565b60606000611501836118cb565b600101905060008167ffffffffffffffff8111156115215761152161206d565b6040519080825280601f01601f19166020018201604052801561154b576020820181803683370190505b5090508181016020015b600019016f181899199a1a9b1b9c1cb0b131b232b360811b600a86061a8153600a850494508461155557509392505050565b606060006115968360026122ba565b6115a19060026122d1565b67ffffffffffffffff8111156115b9576115b961206d565b6040519080825280601f01601f1916602001820160405280156115e3576020820181803683370190505b509050600360fc1b816000815181106115fe576115fe61221c565b60200101906001600160f81b031916908160001a905350600f60fb1b8160018151811061162d5761162d61221c565b60200101906001600160f81b031916908160001a90535060006116518460026122ba565b61165c9060016122d1565b90505b60018111156116d4576f181899199a1a9b1b9c1cb0b131b232b360811b85600f16601081106116905761169061221c565b1a60f81b8282815181106116a6576116a661221c565b60200101906001600160f81b031916908160001a90535060049490941c936116cd816122e4565b905061165f565b508315610f615760405162461bcd60e51b815260206004820181905260248201527f537472696e67733a20686578206c656e67746820696e73756666696369656e746044820152606401610617565b60006001600160e01b031982166380ac58cd60e01b148061175457506001600160e01b03198216635b5e139f60e01b145b806104e457506301ffc9a760e01b6001600160e01b03198316146104e4565b610eee848484846119ad565b60006001600160a01b0384163b156118c057604051630a85bd0160e11b81526001600160a01b0385169063150b7a02906117c39033908990889088906004016122fb565b6020604051808303816000875af19250505080156117fe575060408051601f3d908101601f191682019092526117fb91810190612337565b60015b6118a6573d80801561182c576040519150601f19603f3d011682016040523d82523d6000602084013e611831565b606091505b50805160000361189e5760405162461bcd60e51b815260206004820152603260248201527f4552433732313a207472616e7366657220746f206e6f6e20455243373231526560448201527131b2b4bb32b91034b6b83632b6b2b73a32b960711b6064820152608401610617565b805181602001fd5b6001600160e01b031916630a85bd0160e11b1490506111b3565b506001949350505050565b6000807a184f03e93ff9f4daa797ed6e38ed64bf6a1f0100000000000000008310611914577a184f03e93ff9f4daa797ed6e38ed64bf6a1f010000000000000000830492506040015b6d04ee2d6d415b85acef81000000008310611940576d04ee2d6d415b85acef8100000000830492506020015b662386f26fc10000831061195e57662386f26fc10000830492506010015b6305f5e1008310611976576305f5e100830492506008015b612710831061198a57612710830492506004015b6064831061199c576064830492506002015b600a83106104e45760010192915050565b6001811115611a245760405162461bcd60e51b815260206004820152603560248201527f455243373231456e756d657261626c653a20636f6e736563757469766520747260448201527f616e7366657273206e6f7420737570706f7274656400000000000000000000006064820152608401610617565b816001600160a01b038516611a8057611a7b81600880546000838152600960205260408120829055600182018355919091527ff3f7a9fe364faab93b216da50a3214154f22a0a2b415b23a84c8169e8b636ee30155565b611aa3565b836001600160a01b0316856001600160a01b031614611aa357611aa38582611ae9565b6001600160a01b038416611abf57611aba81611b86565b611ae2565b846001600160a01b0316846001600160a01b031614611ae257611ae28482611c35565b5050505050565b60006001611af684610c51565b611b009190612354565b600083815260076020526040902054909150808214611b53576001600160a01b03841660009081526006602090815260408083208584528252808320548484528184208190558352600790915290208190555b5060009182526007602090815260408084208490556001600160a01b039094168352600681528383209183525290812055565b600854600090611b9890600190612354565b60008381526009602052604081205460088054939450909284908110611bc057611bc061221c565b906000526020600020015490508060088381548110611be157611be161221c565b6000918252602080832090910192909255828152600990915260408082208490558582528120556008805480611c1957611c19612367565b6001900381819060005260206000200160009055905550505050565b6000611c4083610c51565b6001600160a01b039093166000908152600660209081526040808320868452825280832085905593825260079052919091209190915550565b828054828255906000526020600020908101928215611cbf579160200282015b82811115611cbf5782518290611caf90826123cb565b5091602001919060010190611c99565b50611ccb929150611ccf565b5090565b80821115611ccb576000611ce38282611cec565b50600101611ccf565b508054611cf8906121e8565b6000825580601f10611d08575050565b601f0160209004906000526020600020908101906110cb91905b80821115611ccb5760008155600101611d22565b6001600160e01b0319811681146110cb57600080fd5b600060208284031215611d5e57600080fd5b8135610f6181611d36565b60005b83811015611d84578181015183820152602001611d6c565b50506000910152565b60008151808452611da5816020860160208601611d69565b601f01601f19169290920160200192915050565b602081526000610f616020830184611d8d565b600060208284031215611dde57600080fd5b5035919050565b80356001600160a01b0381168114611dfc57600080fd5b919050565b60008060408385031215611e1457600080fd5b611e1d83611de5565b946020939093013593505050565b600080600080600060808688031215611e4357600080fd5b611e4c86611de5565b9450611e5a60208701611de5565b935060408601359250606086013567ffffffffffffffff80821115611e7e57600080fd5b818801915088601f830112611e9257600080fd5b813581811115611ea157600080fd5b896020828501011115611eb357600080fd5b9699959850939650602001949392505050565b600080600060608486031215611edb57600080fd5b611ee484611de5565b9250611ef260208501611de5565b9150604084013590509250925092565b6000602080830181845280855180835260408601915060059250604081841b8701018488016000805b84811015611f9857898403603f19018652825180518086529089019089860190808a1b87018b01855b82811015611f8257601f19898303018452611f70828651611d8d565b948d0194938d01939150600101611f54565b50988b0198965050509288019250600101611f2b565b50919998505050505050505050565b600060208284031215611fb957600080fd5b610f6182611de5565b6020808252825182820181905260009190848201906040850190845b818110156120035783516001600160a01b031683529284019291840191600101611fde565b50909695505050505050565b80358015158114611dfc57600080fd5b60006020828403121561203157600080fd5b610f618261200f565b6000806040838503121561204d57600080fd5b61205683611de5565b91506120646020840161200f565b90509250929050565b634e487b7160e01b600052604160045260246000fd5b600067ffffffffffffffff8084111561209e5761209e61206d565b604051601f8501601f19908116603f011681019082821181831017156120c6576120c661206d565b816040528093508581528686860111156120df57600080fd5b858560208301376000602087830101525050509392505050565b6000806000806080858703121561210f57600080fd5b61211885611de5565b935061212660208601611de5565b925060408501359150606085013567ffffffffffffffff81111561214957600080fd5b8501601f8101871361215a57600080fd5b61216987823560208401612083565b91505092959194509250565b6000806040838503121561218857600080fd5b61219183611de5565b915061206460208401611de5565b6000602082840312156121b157600080fd5b813567ffffffffffffffff8111156121c857600080fd5b8201601f810184136121d957600080fd5b6111b384823560208401612083565b600181811c908216806121fc57607f821691505b602082108103610b2857634e487b7160e01b600052602260045260246000fd5b634e487b7160e01b600052603260045260246000fd5b634e487b7160e01b600052601160045260246000fd5b60006001820161225a5761225a612232565b5060010190565b60008351612273818460208801611d69565b835190830190612287818360208801611d69565b01949350505050565b61060f60f31b8152600082516122ad816002850160208701611d69565b9190910160020192915050565b80820281158282048414176104e4576104e4612232565b808201808211156104e4576104e4612232565b6000816122f3576122f3612232565b506000190190565b60006001600160a01b0380871683528086166020840152508360408301526080606083015261232d6080830184611d8d565b9695505050505050565b60006020828403121561234957600080fd5b8151610f6181611d36565b818103818111156104e4576104e4612232565b634e487b7160e01b600052603160045260246000fd5b601f8211156106b857600081815260208120601f850160051c810160208610156123a45750805b601f850160051c820191505b818110156123c3578281556001016123b0565b505050505050565b815167ffffffffffffffff8111156123e5576123e561206d565b6123f9816123f384546121e8565b8461237d565b602080601f83116001811461242e57600084156124165750858301515b600019600386901b1c1916600185901b1785556123c3565b600085815260208120601f198616915b8281101561245d5788860151825594840194600190910190840161243e565b508582101561247b5787850151600019600388901b60f8161c191681555b5050505050600190811b0190555056fea2646970667358221220156b6d54bda7df8b22998f40ecd2d7877ce649f9ca6743ff30d21b119126b87264736f6c63430008140033a2646970667358221220b26e4ba0e1254812dbc36a4c62da84f58b73427d2c0f018d5b6e1965f87f047f64736f6c63430008140033",
  "linkReferences": {},
  "deployedLinkReferences": {}
}