{
  "_format": "hh-sol-artifact-1",
  "contractName": "Cookie",
  "sourceName": "contracts/Cookie.sol",
  "abi": [
    {
      "inputs": [
        {
          "internalType": "uint256",
          "name": "_id",
          "type": "uint256"
        },
        {
          "internalType": "address payable",
          "name": "_owner",
          "type": "address"
        }
      ],
      "stateMutability": "nonpayable",
      "type": "constructor"
    },
    {
      "anonymous": false,
      "inputs": [
        {
          "indexed": true,
          "internalType": "address",
          "name": "owner",
          "type": "address"
        },
        {
          "indexed": true,
          "internalType": "address",
          "name": "approved",
          "type": "address"
        },
        {
          "indexed": true,
          "internalType": "uint256",
          "name": "tokenId",
          "type": "uint256"
        }
      ],
      "name": "Approval",
      "type": "event"
    },
    {
      "anonymous": false,
      "inputs": [
        {
          "indexed": true,
          "internalType": "address",
          "name": "owner",
          "type": "address"
        },
        {
          "indexed": true,
          "internalType": "address",
          "name": "operator",
          "type": "address"
        },
        {
          "indexed": false,
          "internalType": "bool",
          "name": "approved",
          "type": "bool"
        }
      ],
      "name": "ApprovalForAll",
      "type": "event"
    },
    {
      "anonymous": false,
      "inputs": [
        {
          "indexed": false,
          "internalType": "address",
          "name": "speculator",
          "type": "address"
        },
        {
          "indexed": false,
          "internalType": "bool",
          "name": "speculation",
          "type": "bool"
        }
      ],
      "name": "ISpeculate",
      "type": "event"
    },
    {
      "anonymous": false,
      "inputs": [
        {
          "indexed": true,
          "internalType": "address",
          "name": "from",
          "type": "address"
        },
        {
          "indexed": true,
          "internalType": "address",
          "name": "to",
          "type": "address"
        },
        {
          "indexed": true,
          "internalType": "uint256",
          "name": "tokenId",
          "type": "uint256"
        }
      ],
      "name": "Transfer",
      "type": "event"
    },
    {
      "inputs": [
        {
          "internalType": "string",
          "name": "_comment",
          "type": "string"
        }
      ],
      "name": "addAComment",
      "outputs": [],
      "stateMutability": "nonpayable",
      "type": "function"
    },
    {
      "inputs": [
        {
          "internalType": "address",
          "name": "to",
          "type": "address"
        },
        {
          "internalType": "uint256",
          "name": "tokenId",
          "type": "uint256"
        }
      ],
      "name": "approve",
      "outputs": [],
      "stateMutability": "nonpayable",
      "type": "function"
    },
    {
      "inputs": [
        {
          "internalType": "address",
          "name": "owner",
          "type": "address"
        }
      ],
      "name": "balanceOf",
      "outputs": [
        {
          "internalType": "uint256",
          "name": "",
          "type": "uint256"
        }
      ],
      "stateMutability": "view",
      "type": "function"
    },
    {
      "inputs": [],
      "name": "endGossip",
      "outputs": [],
      "stateMutability": "nonpayable",
      "type": "function"
    },
    {
      "inputs": [],
      "name": "getAllComments",
      "outputs": [
        {
          "components": [
            {
              "internalType": "uint256",
              "name": "id",
              "type": "uint256"
            },
            {
              "internalType": "address",
              "name": "commentBy",
              "type": "address"
            },
            {
              "internalType": "uint256",
              "name": "timestamp",
              "type": "uint256"
            },
            {
              "internalType": "string",
              "name": "content",
              "type": "string"
            }
          ],
          "internalType": "struct Cookie.Comment[]",
          "name": "",
          "type": "tuple[]"
        }
      ],
      "stateMutability": "view",
      "type": "function"
    },
    {
      "inputs": [],
      "name": "getAllGossipers",
      "outputs": [
        {
          "internalType": "address[]",
          "name": "",
          "type": "address[]"
        }
      ],
      "stateMutability": "view",
      "type": "function"
    },
    {
      "inputs": [
        {
          "internalType": "uint256",
          "name": "tokenId",
          "type": "uint256"
        }
      ],
      "name": "getApproved",
      "outputs": [
        {
          "internalType": "address",
          "name": "",
          "type": "address"
        }
      ],
      "stateMutability": "view",
      "type": "function"
    },
    {
      "inputs": [],
      "name": "getSupply",
      "outputs": [
        {
          "internalType": "uint256",
          "name": "",
          "type": "uint256"
        }
      ],
      "stateMutability": "view",
      "type": "function"
    },
    {
      "inputs": [
        {
          "internalType": "address",
          "name": "owner",
          "type": "address"
        },
        {
          "internalType": "address",
          "name": "operator",
          "type": "address"
        }
      ],
      "name": "isApprovedForAll",
      "outputs": [
        {
          "internalType": "bool",
          "name": "",
          "type": "bool"
        }
      ],
      "stateMutability": "view",
      "type": "function"
    },
    {
      "inputs": [],
      "name": "name",
      "outputs": [
        {
          "internalType": "string",
          "name": "",
          "type": "string"
        }
      ],
      "stateMutability": "view",
      "type": "function"
    },
    {
      "inputs": [
        {
          "internalType": "address",
          "name": "",
          "type": "address"
        },
        {
          "internalType": "address",
          "name": "",
          "type": "address"
        },
        {
          "internalType": "uint256",
          "name": "",
          "type": "uint256"
        },
        {
          "internalType": "bytes",
          "name": "",
          "type": "bytes"
        }
      ],
      "name": "onERC721Received",
      "outputs": [
        {
          "internalType": "bytes4",
          "name": "",
          "type": "bytes4"
        }
      ],
      "stateMutability": "nonpayable",
      "type": "function"
    },
    {
      "inputs": [
        {
          "internalType": "uint256",
          "name": "tokenId",
          "type": "uint256"
        }
      ],
      "name": "ownerOf",
      "outputs": [
        {
          "internalType": "address",
          "name": "",
          "type": "address"
        }
      ],
      "stateMutability": "view",
      "type": "function"
    },
    {
      "inputs": [
        {
          "internalType": "address",
          "name": "from",
          "type": "address"
        },
        {
          "internalType": "address",
          "name": "to",
          "type": "address"
        },
        {
          "internalType": "uint256",
          "name": "tokenId",
          "type": "uint256"
        }
      ],
      "name": "safeTransferFrom",
      "outputs": [],
      "stateMutability": "nonpayable",
      "type": "function"
    },
    {
      "inputs": [
        {
          "internalType": "address",
          "name": "from",
          "type": "address"
        },
        {
          "internalType": "address",
          "name": "to",
          "type": "address"
        },
        {
          "internalType": "uint256",
          "name": "tokenId",
          "type": "uint256"
        },
        {
          "internalType": "bytes",
          "name": "data",
          "type": "bytes"
        }
      ],
      "name": "safeTransferFrom",
      "outputs": [],
      "stateMutability": "nonpayable",
      "type": "function"
    },
    {
      "inputs": [
        {
          "internalType": "address",
          "name": "operator",
          "type": "address"
        },
        {
          "internalType": "bool",
          "name": "approved",
          "type": "bool"
        }
      ],
      "name": "setApprovalForAll",
      "outputs": [],
      "stateMutability": "nonpayable",
      "type": "function"
    },
    {
      "inputs": [
        {
          "internalType": "bool",
          "name": "_speculation",
          "type": "bool"
        }
      ],
      "name": "speculateTrueorFalse",
      "outputs": [],
      "stateMutability": "payable",
      "type": "function"
    },
    {
      "inputs": [],
      "name": "spillTheTea",
      "outputs": [
        {
          "internalType": "uint256",
          "name": "",
          "type": "uint256"
        },
        {
          "internalType": "bool",
          "name": "",
          "type": "bool"
        },
        {
          "internalType": "uint256",
          "name": "",
          "type": "uint256"
        }
      ],
      "stateMutability": "view",
      "type": "function"
    },
    {
      "inputs": [],
      "name": "startGossip",
      "outputs": [],
      "stateMutability": "nonpayable",
      "type": "function"
    },
    {
      "inputs": [
        {
          "internalType": "bytes4",
          "name": "interfaceId",
          "type": "bytes4"
        }
      ],
      "name": "supportsInterface",
      "outputs": [
        {
          "internalType": "bool",
          "name": "",
          "type": "bool"
        }
      ],
      "stateMutability": "view",
      "type": "function"
    },
    {
      "inputs": [],
      "name": "symbol",
      "outputs": [
        {
          "internalType": "string",
          "name": "",
          "type": "string"
        }
      ],
      "stateMutability": "view",
      "type": "function"
    },
    {
      "inputs": [
        {
          "internalType": "uint256",
          "name": "index",
          "type": "uint256"
        }
      ],
      "name": "tokenByIndex",
      "outputs": [
        {
          "internalType": "uint256",
          "name": "",
          "type": "uint256"
        }
      ],
      "stateMutability": "view",
      "type": "function"
    },
    {
      "inputs": [
        {
          "internalType": "address",
          "name": "owner",
          "type": "address"
        },
        {
          "internalType": "uint256",
          "name": "index",
          "type": "uint256"
        }
      ],
      "name": "tokenOfOwnerByIndex",
      "outputs": [
        {
          "internalType": "uint256",
          "name": "",
          "type": "uint256"
        }
      ],
      "stateMutability": "view",
      "type": "function"
    },
    {
      "inputs": [
        {
          "internalType": "uint256",
          "name": "tokenId",
          "type": "uint256"
        }
      ],
      "name": "tokenURI",
      "outputs": [
        {
          "internalType": "string",
          "name": "",
          "type": "string"
        }
      ],
      "stateMutability": "view",
      "type": "function"
    },
    {
      "inputs": [],
      "name": "totalSupply",
      "outputs": [
        {
          "internalType": "uint256",
          "name": "",
          "type": "uint256"
        }
      ],
      "stateMutability": "view",
      "type": "function"
    },
    {
      "inputs": [
        {
          "internalType": "address",
          "name": "from",
          "type": "address"
        },
        {
          "internalType": "address",
          "name": "to",
          "type": "address"
        },
        {
          "internalType": "uint256",
          "name": "tokenId",
          "type": "uint256"
        }
      ],
      "name": "transferFrom",
      "outputs": [],
      "stateMutability": "nonpayable",
      "type": "function"
    }
  ],
  "bytecode": "0x60806040523480156200001157600080fd5b5060405162002578380380620025788339810160408190526200003491620000cd565b6040518060400160405280600d81526020016c466f7274756e65436f6f6b696560981b8152506040518060400160405280600381526020016246434f60e81b8152508160009081620000879190620001b1565b506001620000968282620001b1565b505050600a91909155600b80546001600160a01b0319166001600160a01b0390921691909117905546600d556000600f556200027d565b60008060408385031215620000e157600080fd5b825160208401519092506001600160a01b03811681146200010157600080fd5b809150509250929050565b634e487b7160e01b600052604160045260246000fd5b600181811c908216806200013757607f821691505b6020821081036200015857634e487b7160e01b600052602260045260246000fd5b50919050565b601f821115620001ac57600081815260208120601f850160051c81016020861015620001875750805b601f850160051c820191505b81811015620001a85782815560010162000193565b5050505b505050565b81516001600160401b03811115620001cd57620001cd6200010c565b620001e581620001de845462000122565b846200015e565b602080601f8311600181146200021d5760008415620002045750858301515b600019600386901b1c1916600185901b178555620001a8565b600085815260208120601f198616915b828110156200024e578886015182559484019460019091019084016200022d565b50858210156200026d5787850151600019600388901b60f8161c191681555b5050505050600190811b01905550565b6122eb806200028d6000396000f3fe6080604052600436106101965760003560e01c80634f6ccce7116100e157806395d89b411161008a578063b88d4fde11610064578063b88d4fde14610470578063c87b56dd14610490578063e985e9c5146104b0578063fbd835ba146104f957600080fd5b806395d89b4114610406578063a22cb4651461041b578063b24275181461043b57600080fd5b806370a08231116100bb57806370a08231146103b15780637ae18d77146103d1578063945c8ec8146103f357600080fd5b80634f6ccce71461035c5780636352211e1461037c5780636c9c2faf1461039c57600080fd5b806318160ddd116101435780632f745c591161011d5780632f745c5914610307578063382a0af81461032757806342842e0e1461033c57600080fd5b806318160ddd146102b357806323b872dd146102d25780632e645771146102f257600080fd5b8063095ea7b311610174578063095ea7b31461022a578063104409041461024c578063150b7a021461026e57600080fd5b806301ffc9a71461019b57806306fdde03146101d0578063081812fc146101f2575b600080fd5b3480156101a757600080fd5b506101bb6101b6366004611bf2565b610519565b60405190151581526020015b60405180910390f35b3480156101dc57600080fd5b506101e561052a565b6040516101c79190611c5f565b3480156101fe57600080fd5b5061021261020d366004611c72565b6105bc565b6040516001600160a01b0390911681526020016101c7565b34801561023657600080fd5b5061024a610245366004611ca7565b6105e3565b005b34801561025857600080fd5b506102616106fd565b6040516101c79190611cd1565b34801561027a57600080fd5b5061029a610289366004611d65565b630a85bd0160e11b95945050505050565b6040516001600160e01b031990911681526020016101c7565b3480156102bf57600080fd5b506008545b6040519081526020016101c7565b3480156102de57600080fd5b5061024a6102ed366004611e00565b6108ab565b3480156102fe57600080fd5b5061024a610922565b34801561031357600080fd5b506102c4610322366004611ca7565b6109f1565b34801561033357600080fd5b5061024a610a87565b34801561034857600080fd5b5061024a610357366004611e00565b610b52565b34801561036857600080fd5b506102c4610377366004611c72565b610b6d565b34801561038857600080fd5b50610212610397366004611c72565b610c00565b3480156103a857600080fd5b506102c4610c65565b3480156103bd57600080fd5b506102c46103cc366004611e3c565b610c75565b3480156103dd57600080fd5b506103e6610cfb565b6040516101c79190611e57565b61024a610401366004611eb4565b610d5c565b34801561041257600080fd5b506101e5610e7c565b34801561042757600080fd5b5061024a610436366004611ecf565b610e8b565b34801561044757600080fd5b50600d54600e54600f546040805193845260ff90921615156020840152908201526060016101c7565b34801561047c57600080fd5b5061024a61048b366004611f8e565b610e9a565b34801561049c57600080fd5b506101e56104ab366004611c72565b610f18565b3480156104bc57600080fd5b506101bb6104cb36600461200a565b6001600160a01b03918216600090815260056020908152604080832093909416825291909152205460ff1690565b34801561050557600080fd5b5061024a610514366004612034565b610f8c565b60006105248261109d565b92915050565b6060600080546105399061207d565b80601f01602080910402602001604051908101604052809291908181526020018280546105659061207d565b80156105b25780601f10610587576101008083540402835291602001916105b2565b820191906000526020600020905b81548152906001019060200180831161059557829003601f168201915b5050505050905090565b60006105c7826110c2565b506000908152600460205260409020546001600160a01b031690565b60006105ee82610c00565b9050806001600160a01b0316836001600160a01b0316036106605760405162461bcd60e51b815260206004820152602160248201527f4552433732313a20617070726f76616c20746f2063757272656e74206f776e656044820152603960f91b60648201526084015b60405180910390fd5b336001600160a01b038216148061067c575061067c81336104cb565b6106ee5760405162461bcd60e51b815260206004820152603d60248201527f4552433732313a20617070726f76652063616c6c6572206973206e6f7420746f60448201527f6b656e206f776e6572206f7220617070726f76656420666f7220616c6c0000006064820152608401610657565b6106f88383611126565b505050565b60606000600f5467ffffffffffffffff81111561071c5761071c611f02565b60405190808252806020026020018201604052801561078157816020015b61076e60405180608001604052806000815260200160006001600160a01b0316815260200160008152602001606081525090565b81526020019060019003908161073a5790505b50905060015b600f5481116108a55760008181526010602090815260409182902082516080810184528154815260018201546001600160a01b0316928101929092526002810154928201929092526003820180549192916060840191906107e79061207d565b80601f01602080910402602001604051908101604052809291908181526020018280546108139061207d565b80156108605780601f1061083557610100808354040283529160200191610860565b820191906000526020600020905b81548152906001019060200180831161084357829003601f168201915b5050505050815250508260018361087791906120c7565b81518110610887576108876120da565b6020026020010181905250808061089d906120f0565b915050610787565b50919050565b6108b53382611194565b6109175760405162461bcd60e51b815260206004820152602d60248201527f4552433732313a2063616c6c6572206973206e6f7420746f6b656e206f776e6560448201526c1c881bdc88185c1c1c9bdd9959609a1b6064820152608401610657565b6106f8838383611213565b600b546001600160a01b0316331461098f5760405162461bcd60e51b815260206004820152602a60248201527f4f6e6c792074686520436f6f6b6965204f776e65722063616e20737461727420604482015269074686520476f737369760b41b6064820152608401610657565b600e5460ff16156109e25760405162461bcd60e51b815260206004820152601b60248201527f476f737369702068617320616c726561647920737461727465642e00000000006044820152606401610657565b600e805460ff19166001179055565b60006109fc83610c75565b8210610a5e5760405162461bcd60e51b815260206004820152602b60248201527f455243373231456e756d657261626c653a206f776e657220696e646578206f7560448201526a74206f6620626f756e647360a81b6064820152608401610657565b506001600160a01b03919091166000908152600660209081526040808320938352929052205490565b600b546001600160a01b03163314610af45760405162461bcd60e51b815260206004820152602a60248201527f4f6e6c792074686520436f6f6b6965204f776e65722063616e20737461727420604482015269074686520476f737369760b41b6064820152608401610657565b600e5460ff16610b465760405162461bcd60e51b815260206004820181905260248201527f476f7373697020686173206e6f74206265656e2073746172746564207965742e6044820152606401610657565b600e805460ff19169055565b6106f883838360405180602001604052806000815250610e9a565b6000610b7860085490565b8210610bdb5760405162461bcd60e51b815260206004820152602c60248201527f455243373231456e756d657261626c653a20676c6f62616c20696e646578206f60448201526b7574206f6620626f756e647360a01b6064820152608401610657565b60088281548110610bee57610bee6120da565b90600052602060002001549050919050565b6000818152600260205260408120546001600160a01b0316806105245760405162461bcd60e51b815260206004820152601860248201527f4552433732313a20696e76616c696420746f6b656e20494400000000000000006044820152606401610657565b6000610c7060085490565b905090565b60006001600160a01b038216610cdf5760405162461bcd60e51b815260206004820152602960248201527f4552433732313a2061646472657373207a65726f206973206e6f7420612076616044820152683634b21037bbb732b960b91b6064820152608401610657565b506001600160a01b031660009081526003602052604090205490565b6060600c8054806020026020016040519081016040528092919081815260200182805480156105b257602002820191906000526020600020905b81546001600160a01b03168152600190910190602001808311610d35575050505050905090565b600b546001600160a01b03163303610dc75760405162461bcd60e51b815260206004820152602860248201527f596f752063616e6e6f742073706563756c617465206f6e20796f7572206f776e60448201526720636f6f6b69652160c01b6064820152608401610657565b600e5460ff16610e3f5760405162461bcd60e51b815260206004820152603260248201527f54686520636f6f6b6965206f776e65722068617320636c6f736564207468697360448201527f2074687265616420666f7220676f7373697000000000000000000000000000006064820152608401610657565b6040805133815282151560208201527f57bf161eca343edadb6bfd98988b22edbe95c506885f2e773f815c6c23934c0f910160405180910390a150565b6060600180546105399061207d565b610e96338383611400565b5050565b610ea43383611194565b610f065760405162461bcd60e51b815260206004820152602d60248201527f4552433732313a2063616c6c6572206973206e6f7420746f6b656e206f776e6560448201526c1c881bdc88185c1c1c9bdd9959609a1b6064820152608401610657565b610f12848484846114ce565b50505050565b6060610f23826110c2565b6000610f3a60408051602081019091526000815290565b90506000815111610f5a5760405180602001604052806000815250610f85565b80610f648461154c565b604051602001610f75929190612109565b6040516020818303038152906040525b9392505050565b600e5460ff166110045760405162461bcd60e51b815260206004820152603560248201527f506c65617365207761697420666f722074686520436f6f6b6965204f776e657260448201527f20746f2073746172742074686520476f737369702e00000000000000000000006064820152608401610657565b60408051608081018252600f54808252336020808401918252428486019081526060850187815260009485526010909252949092208351815590516001820180546001600160a01b0319166001600160a01b039092169190911790559251600284015551909190600382019061107a9082612186565b5050600f80549150600061108d836120f0565b919050555061109a6115df565b50565b60006001600160e01b0319821663780e9d6360e01b1480610524575061052482611686565b6000818152600260205260409020546001600160a01b031661109a5760405162461bcd60e51b815260206004820152601860248201527f4552433732313a20696e76616c696420746f6b656e20494400000000000000006044820152606401610657565b600081815260046020526040902080546001600160a01b0319166001600160a01b038416908117909155819061115b82610c00565b6001600160a01b03167f8c5be1e5ebec7d5bd14f71427d1e84f3dd0314c0f7b2291e5b200ac8c7c3b92560405160405180910390a45050565b6000806111a083610c00565b9050806001600160a01b0316846001600160a01b031614806111e757506001600160a01b0380821660009081526005602090815260408083209388168352929052205460ff165b8061120b5750836001600160a01b0316611200846105bc565b6001600160a01b0316145b949350505050565b826001600160a01b031661122682610c00565b6001600160a01b03161461128a5760405162461bcd60e51b815260206004820152602560248201527f4552433732313a207472616e736665722066726f6d20696e636f72726563742060448201526437bbb732b960d91b6064820152608401610657565b6001600160a01b0382166112ec5760405162461bcd60e51b8152602060048201526024808201527f4552433732313a207472616e7366657220746f20746865207a65726f206164646044820152637265737360e01b6064820152608401610657565b6112f983838360016116d6565b826001600160a01b031661130c82610c00565b6001600160a01b0316146113705760405162461bcd60e51b815260206004820152602560248201527f4552433732313a207472616e736665722066726f6d20696e636f72726563742060448201526437bbb732b960d91b6064820152608401610657565b600081815260046020908152604080832080546001600160a01b03199081169091556001600160a01b0387811680865260038552838620805460001901905590871680865283862080546001019055868652600290945282852080549092168417909155905184937fddf252ad1be2c89b69c2b068fc378daa952ba7f163c4a11628f55a4df523b3ef91a4505050565b816001600160a01b0316836001600160a01b0316036114615760405162461bcd60e51b815260206004820152601960248201527f4552433732313a20617070726f766520746f2063616c6c6572000000000000006044820152606401610657565b6001600160a01b03838116600081815260056020908152604080832094871680845294825291829020805460ff191686151590811790915591519182527f17307eab39ab6107e8899845ad3d59bd9653f200f220920489ca2b5937696c31910160405180910390a3505050565b6114d9848484611213565b6114e5848484846116e2565b610f125760405162461bcd60e51b815260206004820152603260248201527f4552433732313a207472616e7366657220746f206e6f6e20455243373231526560448201527131b2b4bb32b91034b6b83632b6b2b73a32b960711b6064820152608401610657565b606060006115598361182e565b600101905060008167ffffffffffffffff81111561157957611579611f02565b6040519080825280601f01601f1916602001820160405280156115a3576020820181803683370190505b5090508181016020015b600019016f181899199a1a9b1b9c1cb0b131b232b360811b600a86061a8153600a85049450846115ad57509392505050565b6000805b600c5481101561163b57336001600160a01b0316600c828154811061160a5761160a6120da565b6000918252602090912001546001600160a01b03160361162957600191505b80611633816120f0565b9150506115e3565b508061109a57600c80546001810182556000919091527fdf6966c971051c3d54ec59162606531493a51404a002842f56009d7e5cf4a8c70180546001600160a01b0319163317905550565b60006001600160e01b031982166380ac58cd60e01b14806116b757506001600160e01b03198216635b5e139f60e01b145b8061052457506301ffc9a760e01b6001600160e01b0319831614610524565b610f1284848484611910565b60006001600160a01b0384163b1561182357604051630a85bd0160e11b81526001600160a01b0385169063150b7a0290611726903390899088908890600401612246565b6020604051808303816000875af1925050508015611761575060408051601f3d908101601f1916820190925261175e91810190612282565b60015b611809573d80801561178f576040519150601f19603f3d011682016040523d82523d6000602084013e611794565b606091505b5080516000036118015760405162461bcd60e51b815260206004820152603260248201527f4552433732313a207472616e7366657220746f206e6f6e20455243373231526560448201527131b2b4bb32b91034b6b83632b6b2b73a32b960711b6064820152608401610657565b805181602001fd5b6001600160e01b031916630a85bd0160e11b14905061120b565b506001949350505050565b6000807a184f03e93ff9f4daa797ed6e38ed64bf6a1f0100000000000000008310611877577a184f03e93ff9f4daa797ed6e38ed64bf6a1f010000000000000000830492506040015b6d04ee2d6d415b85acef810000000083106118a3576d04ee2d6d415b85acef8100000000830492506020015b662386f26fc1000083106118c157662386f26fc10000830492506010015b6305f5e10083106118d9576305f5e100830492506008015b61271083106118ed57612710830492506004015b606483106118ff576064830492506002015b600a83106105245760010192915050565b60018111156119875760405162461bcd60e51b815260206004820152603560248201527f455243373231456e756d657261626c653a20636f6e736563757469766520747260448201527f616e7366657273206e6f7420737570706f7274656400000000000000000000006064820152608401610657565b816001600160a01b0385166119e3576119de81600880546000838152600960205260408120829055600182018355919091527ff3f7a9fe364faab93b216da50a3214154f22a0a2b415b23a84c8169e8b636ee30155565b611a06565b836001600160a01b0316856001600160a01b031614611a0657611a068582611a4c565b6001600160a01b038416611a2257611a1d81611ae9565b611a45565b846001600160a01b0316846001600160a01b031614611a4557611a458482611b98565b5050505050565b60006001611a5984610c75565b611a6391906120c7565b600083815260076020526040902054909150808214611ab6576001600160a01b03841660009081526006602090815260408083208584528252808320548484528184208190558352600790915290208190555b5060009182526007602090815260408084208490556001600160a01b039094168352600681528383209183525290812055565b600854600090611afb906001906120c7565b60008381526009602052604081205460088054939450909284908110611b2357611b236120da565b906000526020600020015490508060088381548110611b4457611b446120da565b6000918252602080832090910192909255828152600990915260408082208490558582528120556008805480611b7c57611b7c61229f565b6001900381819060005260206000200160009055905550505050565b6000611ba383610c75565b6001600160a01b039093166000908152600660209081526040808320868452825280832085905593825260079052919091209190915550565b6001600160e01b03198116811461109a57600080fd5b600060208284031215611c0457600080fd5b8135610f8581611bdc565b60005b83811015611c2a578181015183820152602001611c12565b50506000910152565b60008151808452611c4b816020860160208601611c0f565b601f01601f19169290920160200192915050565b602081526000610f856020830184611c33565b600060208284031215611c8457600080fd5b5035919050565b80356001600160a01b0381168114611ca257600080fd5b919050565b60008060408385031215611cba57600080fd5b611cc383611c8b565b946020939093013593505050565b60006020808301818452808551808352604092508286019150828160051b87010184880160005b83811015611d5757888303603f19018552815180518452878101516001600160a01b0316888501528681015187850152606090810151608091850182905290611d4381860183611c33565b968901969450505090860190600101611cf8565b509098975050505050505050565b600080600080600060808688031215611d7d57600080fd5b611d8686611c8b565b9450611d9460208701611c8b565b935060408601359250606086013567ffffffffffffffff80821115611db857600080fd5b818801915088601f830112611dcc57600080fd5b813581811115611ddb57600080fd5b896020828501011115611ded57600080fd5b9699959850939650602001949392505050565b600080600060608486031215611e1557600080fd5b611e1e84611c8b565b9250611e2c60208501611c8b565b9150604084013590509250925092565b600060208284031215611e4e57600080fd5b610f8582611c8b565b6020808252825182820181905260009190848201906040850190845b81811015611e985783516001600160a01b031683529284019291840191600101611e73565b50909695505050505050565b80358015158114611ca257600080fd5b600060208284031215611ec657600080fd5b610f8582611ea4565b60008060408385031215611ee257600080fd5b611eeb83611c8b565b9150611ef960208401611ea4565b90509250929050565b634e487b7160e01b600052604160045260246000fd5b600067ffffffffffffffff80841115611f3357611f33611f02565b604051601f8501601f19908116603f01168101908282118183101715611f5b57611f5b611f02565b81604052809350858152868686011115611f7457600080fd5b858560208301376000602087830101525050509392505050565b60008060008060808587031215611fa457600080fd5b611fad85611c8b565b9350611fbb60208601611c8b565b925060408501359150606085013567ffffffffffffffff811115611fde57600080fd5b8501601f81018713611fef57600080fd5b611ffe87823560208401611f18565b91505092959194509250565b6000806040838503121561201d57600080fd5b61202683611c8b565b9150611ef960208401611c8b565b60006020828403121561204657600080fd5b813567ffffffffffffffff81111561205d57600080fd5b8201601f8101841361206e57600080fd5b61120b84823560208401611f18565b600181811c9082168061209157607f821691505b6020821081036108a557634e487b7160e01b600052602260045260246000fd5b634e487b7160e01b600052601160045260246000fd5b81810381811115610524576105246120b1565b634e487b7160e01b600052603260045260246000fd5b600060018201612102576121026120b1565b5060010190565b6000835161211b818460208801611c0f565b83519083019061212f818360208801611c0f565b01949350505050565b601f8211156106f857600081815260208120601f850160051c8101602086101561215f5750805b601f850160051c820191505b8181101561217e5782815560010161216b565b505050505050565b815167ffffffffffffffff8111156121a0576121a0611f02565b6121b4816121ae845461207d565b84612138565b602080601f8311600181146121e957600084156121d15750858301515b600019600386901b1c1916600185901b17855561217e565b600085815260208120601f198616915b82811015612218578886015182559484019460019091019084016121f9565b50858210156122365787850151600019600388901b60f8161c191681555b5050505050600190811b01905550565b60006001600160a01b038087168352808616602084015250836040830152608060608301526122786080830184611c33565b9695505050505050565b60006020828403121561229457600080fd5b8151610f8581611bdc565b634e487b7160e01b600052603160045260246000fdfea2646970667358221220c1c857286bb9ec99df912fb7fe7d7d56c1b750cbd3181f4d239300186fc6e64464736f6c63430008140033",
  "linkReferences": {},
  "deployedLinkReferences": {}
}