{
  "_format": "hh-sol-artifact-1",
  "contractName": "Cookie",
  "sourceName": "contracts/Cookie.sol",
  "abi": [
    {
      "inputs": [
        {
          "internalType": "uint256",
          "name": "_id",
          "type": "uint256"
        },
        {
          "internalType": "address payable",
          "name": "_owner",
          "type": "address"
        }
      ],
      "stateMutability": "nonpayable",
      "type": "constructor"
    },
    {
      "anonymous": false,
      "inputs": [
        {
          "indexed": true,
          "internalType": "address",
          "name": "owner",
          "type": "address"
        },
        {
          "indexed": true,
          "internalType": "address",
          "name": "approved",
          "type": "address"
        },
        {
          "indexed": true,
          "internalType": "uint256",
          "name": "tokenId",
          "type": "uint256"
        }
      ],
      "name": "Approval",
      "type": "event"
    },
    {
      "anonymous": false,
      "inputs": [
        {
          "indexed": true,
          "internalType": "address",
          "name": "owner",
          "type": "address"
        },
        {
          "indexed": true,
          "internalType": "address",
          "name": "operator",
          "type": "address"
        },
        {
          "indexed": false,
          "internalType": "bool",
          "name": "approved",
          "type": "bool"
        }
      ],
      "name": "ApprovalForAll",
      "type": "event"
    },
    {
      "anonymous": false,
      "inputs": [
        {
          "indexed": false,
          "internalType": "address",
          "name": "speculator",
          "type": "address"
        },
        {
          "indexed": false,
          "internalType": "bool",
          "name": "speculation",
          "type": "bool"
        }
      ],
      "name": "ISpeculate",
      "type": "event"
    },
    {
      "anonymous": false,
      "inputs": [
        {
          "indexed": true,
          "internalType": "address",
          "name": "from",
          "type": "address"
        },
        {
          "indexed": true,
          "internalType": "address",
          "name": "to",
          "type": "address"
        },
        {
          "indexed": true,
          "internalType": "uint256",
          "name": "tokenId",
          "type": "uint256"
        }
      ],
      "name": "Transfer",
      "type": "event"
    },
    {
      "inputs": [
        {
          "internalType": "string",
          "name": "_comment",
          "type": "string"
        }
      ],
      "name": "addAComment",
      "outputs": [],
      "stateMutability": "nonpayable",
      "type": "function"
    },
    {
      "inputs": [
        {
          "internalType": "address",
          "name": "to",
          "type": "address"
        },
        {
          "internalType": "uint256",
          "name": "tokenId",
          "type": "uint256"
        }
      ],
      "name": "approve",
      "outputs": [],
      "stateMutability": "nonpayable",
      "type": "function"
    },
    {
      "inputs": [
        {
          "internalType": "address",
          "name": "owner",
          "type": "address"
        }
      ],
      "name": "balanceOf",
      "outputs": [
        {
          "internalType": "uint256",
          "name": "",
          "type": "uint256"
        }
      ],
      "stateMutability": "view",
      "type": "function"
    },
    {
      "inputs": [],
      "name": "endGossip",
      "outputs": [],
      "stateMutability": "nonpayable",
      "type": "function"
    },
    {
      "inputs": [],
      "name": "getAllComments",
      "outputs": [
        {
          "components": [
            {
              "internalType": "uint256",
              "name": "id",
              "type": "uint256"
            },
            {
              "internalType": "address",
              "name": "commentBy",
              "type": "address"
            },
            {
              "internalType": "uint256",
              "name": "timestamp",
              "type": "uint256"
            },
            {
              "internalType": "string",
              "name": "content",
              "type": "string"
            }
          ],
          "internalType": "struct Cookie.Comment[]",
          "name": "",
          "type": "tuple[]"
        }
      ],
      "stateMutability": "view",
      "type": "function"
    },
    {
      "inputs": [],
      "name": "getAllGossipers",
      "outputs": [
        {
          "internalType": "address[]",
          "name": "",
          "type": "address[]"
        }
      ],
      "stateMutability": "view",
      "type": "function"
    },
    {
      "inputs": [
        {
          "internalType": "uint256",
          "name": "tokenId",
          "type": "uint256"
        }
      ],
      "name": "getApproved",
      "outputs": [
        {
          "internalType": "address",
          "name": "",
          "type": "address"
        }
      ],
      "stateMutability": "view",
      "type": "function"
    },
    {
      "inputs": [],
      "name": "getSupply",
      "outputs": [
        {
          "internalType": "uint256",
          "name": "",
          "type": "uint256"
        }
      ],
      "stateMutability": "view",
      "type": "function"
    },
    {
      "inputs": [
        {
          "internalType": "address",
          "name": "owner",
          "type": "address"
        },
        {
          "internalType": "address",
          "name": "operator",
          "type": "address"
        }
      ],
      "name": "isApprovedForAll",
      "outputs": [
        {
          "internalType": "bool",
          "name": "",
          "type": "bool"
        }
      ],
      "stateMutability": "view",
      "type": "function"
    },
    {
      "inputs": [],
      "name": "name",
      "outputs": [
        {
          "internalType": "string",
          "name": "",
          "type": "string"
        }
      ],
      "stateMutability": "view",
      "type": "function"
    },
    {
      "inputs": [
        {
          "internalType": "address",
          "name": "",
          "type": "address"
        },
        {
          "internalType": "address",
          "name": "",
          "type": "address"
        },
        {
          "internalType": "uint256",
          "name": "",
          "type": "uint256"
        },
        {
          "internalType": "bytes",
          "name": "",
          "type": "bytes"
        }
      ],
      "name": "onERC721Received",
      "outputs": [
        {
          "internalType": "bytes4",
          "name": "",
          "type": "bytes4"
        }
      ],
      "stateMutability": "nonpayable",
      "type": "function"
    },
    {
      "inputs": [
        {
          "internalType": "uint256",
          "name": "tokenId",
          "type": "uint256"
        }
      ],
      "name": "ownerOf",
      "outputs": [
        {
          "internalType": "address",
          "name": "",
          "type": "address"
        }
      ],
      "stateMutability": "view",
      "type": "function"
    },
    {
      "inputs": [
        {
          "internalType": "address",
          "name": "from",
          "type": "address"
        },
        {
          "internalType": "address",
          "name": "to",
          "type": "address"
        },
        {
          "internalType": "uint256",
          "name": "tokenId",
          "type": "uint256"
        }
      ],
      "name": "safeTransferFrom",
      "outputs": [],
      "stateMutability": "nonpayable",
      "type": "function"
    },
    {
      "inputs": [
        {
          "internalType": "address",
          "name": "from",
          "type": "address"
        },
        {
          "internalType": "address",
          "name": "to",
          "type": "address"
        },
        {
          "internalType": "uint256",
          "name": "tokenId",
          "type": "uint256"
        },
        {
          "internalType": "bytes",
          "name": "data",
          "type": "bytes"
        }
      ],
      "name": "safeTransferFrom",
      "outputs": [],
      "stateMutability": "nonpayable",
      "type": "function"
    },
    {
      "inputs": [
        {
          "internalType": "address",
          "name": "operator",
          "type": "address"
        },
        {
          "internalType": "bool",
          "name": "approved",
          "type": "bool"
        }
      ],
      "name": "setApprovalForAll",
      "outputs": [],
      "stateMutability": "nonpayable",
      "type": "function"
    },
    {
      "inputs": [
        {
          "internalType": "bool",
          "name": "_speculation",
          "type": "bool"
        }
      ],
      "name": "speculateTrueorFalse",
      "outputs": [],
      "stateMutability": "payable",
      "type": "function"
    },
    {
      "inputs": [],
      "name": "spillTheTea",
      "outputs": [
        {
          "internalType": "uint256",
          "name": "",
          "type": "uint256"
        },
        {
          "internalType": "bool",
          "name": "",
          "type": "bool"
        },
        {
          "internalType": "uint256",
          "name": "",
          "type": "uint256"
        },
        {
          "internalType": "uint256",
          "name": "",
          "type": "uint256"
        },
        {
          "internalType": "address",
          "name": "",
          "type": "address"
        }
      ],
      "stateMutability": "view",
      "type": "function"
    },
    {
      "inputs": [],
      "name": "startGossip",
      "outputs": [],
      "stateMutability": "nonpayable",
      "type": "function"
    },
    {
      "inputs": [
        {
          "internalType": "bytes4",
          "name": "interfaceId",
          "type": "bytes4"
        }
      ],
      "name": "supportsInterface",
      "outputs": [
        {
          "internalType": "bool",
          "name": "",
          "type": "bool"
        }
      ],
      "stateMutability": "view",
      "type": "function"
    },
    {
      "inputs": [],
      "name": "symbol",
      "outputs": [
        {
          "internalType": "string",
          "name": "",
          "type": "string"
        }
      ],
      "stateMutability": "view",
      "type": "function"
    },
    {
      "inputs": [
        {
          "internalType": "uint256",
          "name": "index",
          "type": "uint256"
        }
      ],
      "name": "tokenByIndex",
      "outputs": [
        {
          "internalType": "uint256",
          "name": "",
          "type": "uint256"
        }
      ],
      "stateMutability": "view",
      "type": "function"
    },
    {
      "inputs": [
        {
          "internalType": "address",
          "name": "owner",
          "type": "address"
        },
        {
          "internalType": "uint256",
          "name": "index",
          "type": "uint256"
        }
      ],
      "name": "tokenOfOwnerByIndex",
      "outputs": [
        {
          "internalType": "uint256",
          "name": "",
          "type": "uint256"
        }
      ],
      "stateMutability": "view",
      "type": "function"
    },
    {
      "inputs": [
        {
          "internalType": "uint256",
          "name": "tokenId",
          "type": "uint256"
        }
      ],
      "name": "tokenURI",
      "outputs": [
        {
          "internalType": "string",
          "name": "",
          "type": "string"
        }
      ],
      "stateMutability": "view",
      "type": "function"
    },
    {
      "inputs": [],
      "name": "totalSupply",
      "outputs": [
        {
          "internalType": "uint256",
          "name": "",
          "type": "uint256"
        }
      ],
      "stateMutability": "view",
      "type": "function"
    },
    {
      "inputs": [
        {
          "internalType": "address",
          "name": "from",
          "type": "address"
        },
        {
          "internalType": "address",
          "name": "to",
          "type": "address"
        },
        {
          "internalType": "uint256",
          "name": "tokenId",
          "type": "uint256"
        }
      ],
      "name": "transferFrom",
      "outputs": [],
      "stateMutability": "nonpayable",
      "type": "function"
    }
  ],
  "bytecode": "0x60806040523480156200001157600080fd5b5060405162002594380380620025948339810160408190526200003491620000cd565b6040518060400160405280600d81526020016c466f7274756e65436f6f6b696560981b8152506040518060400160405280600381526020016246434f60e81b8152508160009081620000879190620001b1565b506001620000968282620001b1565b505050600a91909155600b80546001600160a01b0319166001600160a01b0390921691909117905546600d556000600f556200027d565b60008060408385031215620000e157600080fd5b825160208401519092506001600160a01b03811681146200010157600080fd5b809150509250929050565b634e487b7160e01b600052604160045260246000fd5b600181811c908216806200013757607f821691505b6020821081036200015857634e487b7160e01b600052602260045260246000fd5b50919050565b601f821115620001ac57600081815260208120601f850160051c81016020861015620001875750805b601f850160051c820191505b81811015620001a85782815560010162000193565b5050505b505050565b81516001600160401b03811115620001cd57620001cd6200010c565b620001e581620001de845462000122565b846200015e565b602080601f8311600181146200021d5760008415620002045750858301515b600019600386901b1c1916600185901b178555620001a8565b600085815260208120601f198616915b828110156200024e578886015182559484019460019091019084016200022d565b50858210156200026d5787850151600019600388901b60f8161c191681555b5050505050600190811b01905550565b612307806200028d6000396000f3fe6080604052600436106101965760003560e01c80634f6ccce7116100e157806395d89b411161008a578063b88d4fde11610064578063b88d4fde1461048c578063c87b56dd146104ac578063e985e9c5146104cc578063fbd835ba1461051557600080fd5b806395d89b4114610406578063a22cb4651461041b578063b24275181461043b57600080fd5b806370a08231116100bb57806370a08231146103b15780637ae18d77146103d1578063945c8ec8146103f357600080fd5b80634f6ccce71461035c5780636352211e1461037c5780636c9c2faf1461039c57600080fd5b806318160ddd116101435780632f745c591161011d5780632f745c5914610307578063382a0af81461032757806342842e0e1461033c57600080fd5b806318160ddd146102b357806323b872dd146102d25780632e645771146102f257600080fd5b8063095ea7b311610174578063095ea7b31461022a578063104409041461024c578063150b7a021461026e57600080fd5b806301ffc9a71461019b57806306fdde03146101d0578063081812fc146101f2575b600080fd5b3480156101a757600080fd5b506101bb6101b6366004611c0e565b610535565b60405190151581526020015b60405180910390f35b3480156101dc57600080fd5b506101e5610546565b6040516101c79190611c7b565b3480156101fe57600080fd5b5061021261020d366004611c8e565b6105d8565b6040516001600160a01b0390911681526020016101c7565b34801561023657600080fd5b5061024a610245366004611cc3565b6105ff565b005b34801561025857600080fd5b50610261610719565b6040516101c79190611ced565b34801561027a57600080fd5b5061029a610289366004611d81565b630a85bd0160e11b95945050505050565b6040516001600160e01b031990911681526020016101c7565b3480156102bf57600080fd5b506008545b6040519081526020016101c7565b3480156102de57600080fd5b5061024a6102ed366004611e1c565b6108c7565b3480156102fe57600080fd5b5061024a61093e565b34801561031357600080fd5b506102c4610322366004611cc3565b610a0d565b34801561033357600080fd5b5061024a610aa3565b34801561034857600080fd5b5061024a610357366004611e1c565b610b6e565b34801561036857600080fd5b506102c4610377366004611c8e565b610b89565b34801561038857600080fd5b50610212610397366004611c8e565b610c1c565b3480156103a857600080fd5b506102c4610c81565b3480156103bd57600080fd5b506102c46103cc366004611e58565b610c91565b3480156103dd57600080fd5b506103e6610d17565b6040516101c79190611e73565b61024a610401366004611ed0565b610d78565b34801561041257600080fd5b506101e5610e98565b34801561042757600080fd5b5061024a610436366004611eeb565b610ea7565b34801561044757600080fd5b50600d54600e54600f54600a54600b546040805195865260ff909416151560208601529284019190915260608301526001600160a01b0316608082015260a0016101c7565b34801561049857600080fd5b5061024a6104a7366004611faa565b610eb6565b3480156104b857600080fd5b506101e56104c7366004611c8e565b610f34565b3480156104d857600080fd5b506101bb6104e7366004612026565b6001600160a01b03918216600090815260056020908152604080832093909416825291909152205460ff1690565b34801561052157600080fd5b5061024a610530366004612050565b610fa8565b6000610540826110b9565b92915050565b60606000805461055590612099565b80601f016020809104026020016040519081016040528092919081815260200182805461058190612099565b80156105ce5780601f106105a3576101008083540402835291602001916105ce565b820191906000526020600020905b8154815290600101906020018083116105b157829003601f168201915b5050505050905090565b60006105e3826110de565b506000908152600460205260409020546001600160a01b031690565b600061060a82610c1c565b9050806001600160a01b0316836001600160a01b03160361067c5760405162461bcd60e51b815260206004820152602160248201527f4552433732313a20617070726f76616c20746f2063757272656e74206f776e656044820152603960f91b60648201526084015b60405180910390fd5b336001600160a01b0382161480610698575061069881336104e7565b61070a5760405162461bcd60e51b815260206004820152603d60248201527f4552433732313a20617070726f76652063616c6c6572206973206e6f7420746f60448201527f6b656e206f776e6572206f7220617070726f76656420666f7220616c6c0000006064820152608401610673565b6107148383611142565b505050565b60606000600f5467ffffffffffffffff81111561073857610738611f1e565b60405190808252806020026020018201604052801561079d57816020015b61078a60405180608001604052806000815260200160006001600160a01b0316815260200160008152602001606081525090565b8152602001906001900390816107565790505b50905060015b600f5481116108c15760008181526010602090815260409182902082516080810184528154815260018201546001600160a01b03169281019290925260028101549282019290925260038201805491929160608401919061080390612099565b80601f016020809104026020016040519081016040528092919081815260200182805461082f90612099565b801561087c5780601f106108515761010080835404028352916020019161087c565b820191906000526020600020905b81548152906001019060200180831161085f57829003601f168201915b5050505050815250508260018361089391906120e3565b815181106108a3576108a36120f6565b602002602001018190525080806108b99061210c565b9150506107a3565b50919050565b6108d133826111b0565b6109335760405162461bcd60e51b815260206004820152602d60248201527f4552433732313a2063616c6c6572206973206e6f7420746f6b656e206f776e6560448201526c1c881bdc88185c1c1c9bdd9959609a1b6064820152608401610673565b61071483838361122f565b600b546001600160a01b031633146109ab5760405162461bcd60e51b815260206004820152602a60248201527f4f6e6c792074686520436f6f6b6965204f776e65722063616e20737461727420604482015269074686520476f737369760b41b6064820152608401610673565b600e5460ff16156109fe5760405162461bcd60e51b815260206004820152601b60248201527f476f737369702068617320616c726561647920737461727465642e00000000006044820152606401610673565b600e805460ff19166001179055565b6000610a1883610c91565b8210610a7a5760405162461bcd60e51b815260206004820152602b60248201527f455243373231456e756d657261626c653a206f776e657220696e646578206f7560448201526a74206f6620626f756e647360a81b6064820152608401610673565b506001600160a01b03919091166000908152600660209081526040808320938352929052205490565b600b546001600160a01b03163314610b105760405162461bcd60e51b815260206004820152602a60248201527f4f6e6c792074686520436f6f6b6965204f776e65722063616e20737461727420604482015269074686520476f737369760b41b6064820152608401610673565b600e5460ff16610b625760405162461bcd60e51b815260206004820181905260248201527f476f7373697020686173206e6f74206265656e2073746172746564207965742e6044820152606401610673565b600e805460ff19169055565b61071483838360405180602001604052806000815250610eb6565b6000610b9460085490565b8210610bf75760405162461bcd60e51b815260206004820152602c60248201527f455243373231456e756d657261626c653a20676c6f62616c20696e646578206f60448201526b7574206f6620626f756e647360a01b6064820152608401610673565b60088281548110610c0a57610c0a6120f6565b90600052602060002001549050919050565b6000818152600260205260408120546001600160a01b0316806105405760405162461bcd60e51b815260206004820152601860248201527f4552433732313a20696e76616c696420746f6b656e20494400000000000000006044820152606401610673565b6000610c8c60085490565b905090565b60006001600160a01b038216610cfb5760405162461bcd60e51b815260206004820152602960248201527f4552433732313a2061646472657373207a65726f206973206e6f7420612076616044820152683634b21037bbb732b960b91b6064820152608401610673565b506001600160a01b031660009081526003602052604090205490565b6060600c8054806020026020016040519081016040528092919081815260200182805480156105ce57602002820191906000526020600020905b81546001600160a01b03168152600190910190602001808311610d51575050505050905090565b600b546001600160a01b03163303610de35760405162461bcd60e51b815260206004820152602860248201527f596f752063616e6e6f742073706563756c617465206f6e20796f7572206f776e60448201526720636f6f6b69652160c01b6064820152608401610673565b600e5460ff16610e5b5760405162461bcd60e51b815260206004820152603260248201527f54686520636f6f6b6965206f776e65722068617320636c6f736564207468697360448201527f2074687265616420666f7220676f7373697000000000000000000000000000006064820152608401610673565b6040805133815282151560208201527f57bf161eca343edadb6bfd98988b22edbe95c506885f2e773f815c6c23934c0f910160405180910390a150565b60606001805461055590612099565b610eb233838361141c565b5050565b610ec033836111b0565b610f225760405162461bcd60e51b815260206004820152602d60248201527f4552433732313a2063616c6c6572206973206e6f7420746f6b656e206f776e6560448201526c1c881bdc88185c1c1c9bdd9959609a1b6064820152608401610673565b610f2e848484846114ea565b50505050565b6060610f3f826110de565b6000610f5660408051602081019091526000815290565b90506000815111610f765760405180602001604052806000815250610fa1565b80610f8084611568565b604051602001610f91929190612125565b6040516020818303038152906040525b9392505050565b600e5460ff166110205760405162461bcd60e51b815260206004820152603560248201527f506c65617365207761697420666f722074686520436f6f6b6965204f776e657260448201527f20746f2073746172742074686520476f737369702e00000000000000000000006064820152608401610673565b60408051608081018252600f54808252336020808401918252428486019081526060850187815260009485526010909252949092208351815590516001820180546001600160a01b0319166001600160a01b039092169190911790559251600284015551909190600382019061109690826121a2565b5050600f8054915060006110a98361210c565b91905055506110b66115fb565b50565b60006001600160e01b0319821663780e9d6360e01b14806105405750610540826116a2565b6000818152600260205260409020546001600160a01b03166110b65760405162461bcd60e51b815260206004820152601860248201527f4552433732313a20696e76616c696420746f6b656e20494400000000000000006044820152606401610673565b600081815260046020526040902080546001600160a01b0319166001600160a01b038416908117909155819061117782610c1c565b6001600160a01b03167f8c5be1e5ebec7d5bd14f71427d1e84f3dd0314c0f7b2291e5b200ac8c7c3b92560405160405180910390a45050565b6000806111bc83610c1c565b9050806001600160a01b0316846001600160a01b0316148061120357506001600160a01b0380821660009081526005602090815260408083209388168352929052205460ff165b806112275750836001600160a01b031661121c846105d8565b6001600160a01b0316145b949350505050565b826001600160a01b031661124282610c1c565b6001600160a01b0316146112a65760405162461bcd60e51b815260206004820152602560248201527f4552433732313a207472616e736665722066726f6d20696e636f72726563742060448201526437bbb732b960d91b6064820152608401610673565b6001600160a01b0382166113085760405162461bcd60e51b8152602060048201526024808201527f4552433732313a207472616e7366657220746f20746865207a65726f206164646044820152637265737360e01b6064820152608401610673565b61131583838360016116f2565b826001600160a01b031661132882610c1c565b6001600160a01b03161461138c5760405162461bcd60e51b815260206004820152602560248201527f4552433732313a207472616e736665722066726f6d20696e636f72726563742060448201526437bbb732b960d91b6064820152608401610673565b600081815260046020908152604080832080546001600160a01b03199081169091556001600160a01b0387811680865260038552838620805460001901905590871680865283862080546001019055868652600290945282852080549092168417909155905184937fddf252ad1be2c89b69c2b068fc378daa952ba7f163c4a11628f55a4df523b3ef91a4505050565b816001600160a01b0316836001600160a01b03160361147d5760405162461bcd60e51b815260206004820152601960248201527f4552433732313a20617070726f766520746f2063616c6c6572000000000000006044820152606401610673565b6001600160a01b03838116600081815260056020908152604080832094871680845294825291829020805460ff191686151590811790915591519182527f17307eab39ab6107e8899845ad3d59bd9653f200f220920489ca2b5937696c31910160405180910390a3505050565b6114f584848461122f565b611501848484846116fe565b610f2e5760405162461bcd60e51b815260206004820152603260248201527f4552433732313a207472616e7366657220746f206e6f6e20455243373231526560448201527131b2b4bb32b91034b6b83632b6b2b73a32b960711b6064820152608401610673565b606060006115758361184a565b600101905060008167ffffffffffffffff81111561159557611595611f1e565b6040519080825280601f01601f1916602001820160405280156115bf576020820181803683370190505b5090508181016020015b600019016f181899199a1a9b1b9c1cb0b131b232b360811b600a86061a8153600a85049450846115c957509392505050565b6000805b600c5481101561165757336001600160a01b0316600c8281548110611626576116266120f6565b6000918252602090912001546001600160a01b03160361164557600191505b8061164f8161210c565b9150506115ff565b50806110b657600c80546001810182556000919091527fdf6966c971051c3d54ec59162606531493a51404a002842f56009d7e5cf4a8c70180546001600160a01b0319163317905550565b60006001600160e01b031982166380ac58cd60e01b14806116d357506001600160e01b03198216635b5e139f60e01b145b8061054057506301ffc9a760e01b6001600160e01b0319831614610540565b610f2e8484848461192c565b60006001600160a01b0384163b1561183f57604051630a85bd0160e11b81526001600160a01b0385169063150b7a0290611742903390899088908890600401612262565b6020604051808303816000875af192505050801561177d575060408051601f3d908101601f1916820190925261177a9181019061229e565b60015b611825573d8080156117ab576040519150601f19603f3d011682016040523d82523d6000602084013e6117b0565b606091505b50805160000361181d5760405162461bcd60e51b815260206004820152603260248201527f4552433732313a207472616e7366657220746f206e6f6e20455243373231526560448201527131b2b4bb32b91034b6b83632b6b2b73a32b960711b6064820152608401610673565b805181602001fd5b6001600160e01b031916630a85bd0160e11b149050611227565b506001949350505050565b6000807a184f03e93ff9f4daa797ed6e38ed64bf6a1f0100000000000000008310611893577a184f03e93ff9f4daa797ed6e38ed64bf6a1f010000000000000000830492506040015b6d04ee2d6d415b85acef810000000083106118bf576d04ee2d6d415b85acef8100000000830492506020015b662386f26fc1000083106118dd57662386f26fc10000830492506010015b6305f5e10083106118f5576305f5e100830492506008015b612710831061190957612710830492506004015b6064831061191b576064830492506002015b600a83106105405760010192915050565b60018111156119a35760405162461bcd60e51b815260206004820152603560248201527f455243373231456e756d657261626c653a20636f6e736563757469766520747260448201527f616e7366657273206e6f7420737570706f7274656400000000000000000000006064820152608401610673565b816001600160a01b0385166119ff576119fa81600880546000838152600960205260408120829055600182018355919091527ff3f7a9fe364faab93b216da50a3214154f22a0a2b415b23a84c8169e8b636ee30155565b611a22565b836001600160a01b0316856001600160a01b031614611a2257611a228582611a68565b6001600160a01b038416611a3e57611a3981611b05565b611a61565b846001600160a01b0316846001600160a01b031614611a6157611a618482611bb4565b5050505050565b60006001611a7584610c91565b611a7f91906120e3565b600083815260076020526040902054909150808214611ad2576001600160a01b03841660009081526006602090815260408083208584528252808320548484528184208190558352600790915290208190555b5060009182526007602090815260408084208490556001600160a01b039094168352600681528383209183525290812055565b600854600090611b17906001906120e3565b60008381526009602052604081205460088054939450909284908110611b3f57611b3f6120f6565b906000526020600020015490508060088381548110611b6057611b606120f6565b6000918252602080832090910192909255828152600990915260408082208490558582528120556008805480611b9857611b986122bb565b6001900381819060005260206000200160009055905550505050565b6000611bbf83610c91565b6001600160a01b039093166000908152600660209081526040808320868452825280832085905593825260079052919091209190915550565b6001600160e01b0319811681146110b657600080fd5b600060208284031215611c2057600080fd5b8135610fa181611bf8565b60005b83811015611c46578181015183820152602001611c2e565b50506000910152565b60008151808452611c67816020860160208601611c2b565b601f01601f19169290920160200192915050565b602081526000610fa16020830184611c4f565b600060208284031215611ca057600080fd5b5035919050565b80356001600160a01b0381168114611cbe57600080fd5b919050565b60008060408385031215611cd657600080fd5b611cdf83611ca7565b946020939093013593505050565b60006020808301818452808551808352604092508286019150828160051b87010184880160005b83811015611d7357888303603f19018552815180518452878101516001600160a01b0316888501528681015187850152606090810151608091850182905290611d5f81860183611c4f565b968901969450505090860190600101611d14565b509098975050505050505050565b600080600080600060808688031215611d9957600080fd5b611da286611ca7565b9450611db060208701611ca7565b935060408601359250606086013567ffffffffffffffff80821115611dd457600080fd5b818801915088601f830112611de857600080fd5b813581811115611df757600080fd5b896020828501011115611e0957600080fd5b9699959850939650602001949392505050565b600080600060608486031215611e3157600080fd5b611e3a84611ca7565b9250611e4860208501611ca7565b9150604084013590509250925092565b600060208284031215611e6a57600080fd5b610fa182611ca7565b6020808252825182820181905260009190848201906040850190845b81811015611eb45783516001600160a01b031683529284019291840191600101611e8f565b50909695505050505050565b80358015158114611cbe57600080fd5b600060208284031215611ee257600080fd5b610fa182611ec0565b60008060408385031215611efe57600080fd5b611f0783611ca7565b9150611f1560208401611ec0565b90509250929050565b634e487b7160e01b600052604160045260246000fd5b600067ffffffffffffffff80841115611f4f57611f4f611f1e565b604051601f8501601f19908116603f01168101908282118183101715611f7757611f77611f1e565b81604052809350858152868686011115611f9057600080fd5b858560208301376000602087830101525050509392505050565b60008060008060808587031215611fc057600080fd5b611fc985611ca7565b9350611fd760208601611ca7565b925060408501359150606085013567ffffffffffffffff811115611ffa57600080fd5b8501601f8101871361200b57600080fd5b61201a87823560208401611f34565b91505092959194509250565b6000806040838503121561203957600080fd5b61204283611ca7565b9150611f1560208401611ca7565b60006020828403121561206257600080fd5b813567ffffffffffffffff81111561207957600080fd5b8201601f8101841361208a57600080fd5b61122784823560208401611f34565b600181811c908216806120ad57607f821691505b6020821081036108c157634e487b7160e01b600052602260045260246000fd5b634e487b7160e01b600052601160045260246000fd5b81810381811115610540576105406120cd565b634e487b7160e01b600052603260045260246000fd5b60006001820161211e5761211e6120cd565b5060010190565b60008351612137818460208801611c2b565b83519083019061214b818360208801611c2b565b01949350505050565b601f82111561071457600081815260208120601f850160051c8101602086101561217b5750805b601f850160051c820191505b8181101561219a57828155600101612187565b505050505050565b815167ffffffffffffffff8111156121bc576121bc611f1e565b6121d0816121ca8454612099565b84612154565b602080601f83116001811461220557600084156121ed5750858301515b600019600386901b1c1916600185901b17855561219a565b600085815260208120601f198616915b8281101561223457888601518255948401946001909101908401612215565b50858210156122525787850151600019600388901b60f8161c191681555b5050505050600190811b01905550565b60006001600160a01b038087168352808616602084015250836040830152608060608301526122946080830184611c4f565b9695505050505050565b6000602082840312156122b057600080fd5b8151610fa181611bf8565b634e487b7160e01b600052603160045260246000fdfea2646970667358221220776bb145adb2e108d7a9c62c43fe1557bb8a3962f6ffbefb62894c18b26f900a64736f6c63430008140033",
  "linkReferences": {},
  "deployedLinkReferences": {}
}