{
  "_format": "hh-sol-artifact-1",
  "contractName": "OracularProtocol",
  "sourceName": "contracts/OracularProtocol.sol",
  "abi": [
    {
      "inputs": [],
      "stateMutability": "nonpayable",
      "type": "constructor"
    },
    {
      "anonymous": false,
      "inputs": [
        {
          "indexed": true,
          "internalType": "address",
          "name": "owner",
          "type": "address"
        },
        {
          "indexed": true,
          "internalType": "address",
          "name": "approved",
          "type": "address"
        },
        {
          "indexed": true,
          "internalType": "uint256",
          "name": "tokenId",
          "type": "uint256"
        }
      ],
      "name": "Approval",
      "type": "event"
    },
    {
      "anonymous": false,
      "inputs": [
        {
          "indexed": true,
          "internalType": "address",
          "name": "owner",
          "type": "address"
        },
        {
          "indexed": true,
          "internalType": "address",
          "name": "operator",
          "type": "address"
        },
        {
          "indexed": false,
          "internalType": "bool",
          "name": "approved",
          "type": "bool"
        }
      ],
      "name": "ApprovalForAll",
      "type": "event"
    },
    {
      "anonymous": false,
      "inputs": [
        {
          "indexed": false,
          "internalType": "uint256",
          "name": "_fromTokenId",
          "type": "uint256"
        },
        {
          "indexed": false,
          "internalType": "uint256",
          "name": "_toTokenId",
          "type": "uint256"
        }
      ],
      "name": "BatchMetadataUpdate",
      "type": "event"
    },
    {
      "anonymous": false,
      "inputs": [
        {
          "indexed": false,
          "internalType": "address",
          "name": "tokenOwner",
          "type": "address"
        },
        {
          "indexed": false,
          "internalType": "uint256",
          "name": "tokenId",
          "type": "uint256"
        }
      ],
      "name": "CookieMinted",
      "type": "event"
    },
    {
      "anonymous": false,
      "inputs": [
        {
          "indexed": false,
          "internalType": "address",
          "name": "tokenOwner",
          "type": "address"
        },
        {
          "indexed": false,
          "internalType": "uint256",
          "name": "tokenId",
          "type": "uint256"
        },
        {
          "indexed": false,
          "internalType": "address",
          "name": "gossipNetworkId",
          "type": "address"
        }
      ],
      "name": "CookieSentToGossip",
      "type": "event"
    },
    {
      "anonymous": false,
      "inputs": [
        {
          "indexed": false,
          "internalType": "uint256",
          "name": "_tokenId",
          "type": "uint256"
        }
      ],
      "name": "MetadataUpdate",
      "type": "event"
    },
    {
      "anonymous": false,
      "inputs": [
        {
          "indexed": true,
          "internalType": "address",
          "name": "from",
          "type": "address"
        },
        {
          "indexed": true,
          "internalType": "address",
          "name": "to",
          "type": "address"
        },
        {
          "indexed": true,
          "internalType": "uint256",
          "name": "tokenId",
          "type": "uint256"
        }
      ],
      "name": "Transfer",
      "type": "event"
    },
    {
      "inputs": [
        {
          "internalType": "address",
          "name": "to",
          "type": "address"
        },
        {
          "internalType": "uint256",
          "name": "tokenId",
          "type": "uint256"
        }
      ],
      "name": "approve",
      "outputs": [],
      "stateMutability": "nonpayable",
      "type": "function"
    },
    {
      "inputs": [
        {
          "internalType": "address",
          "name": "owner",
          "type": "address"
        }
      ],
      "name": "balanceOf",
      "outputs": [
        {
          "internalType": "uint256",
          "name": "",
          "type": "uint256"
        }
      ],
      "stateMutability": "view",
      "type": "function"
    },
    {
      "inputs": [
        {
          "internalType": "uint256",
          "name": "tokenId",
          "type": "uint256"
        }
      ],
      "name": "getApproved",
      "outputs": [
        {
          "internalType": "address",
          "name": "",
          "type": "address"
        }
      ],
      "stateMutability": "view",
      "type": "function"
    },
    {
      "inputs": [
        {
          "internalType": "address",
          "name": "owner",
          "type": "address"
        },
        {
          "internalType": "address",
          "name": "operator",
          "type": "address"
        }
      ],
      "name": "isApprovedForAll",
      "outputs": [
        {
          "internalType": "bool",
          "name": "",
          "type": "bool"
        }
      ],
      "stateMutability": "view",
      "type": "function"
    },
    {
      "inputs": [
        {
          "internalType": "string",
          "name": "_metadata",
          "type": "string"
        }
      ],
      "name": "mintMyCookie",
      "outputs": [],
      "stateMutability": "nonpayable",
      "type": "function"
    },
    {
      "inputs": [],
      "name": "name",
      "outputs": [
        {
          "internalType": "string",
          "name": "",
          "type": "string"
        }
      ],
      "stateMutability": "view",
      "type": "function"
    },
    {
      "inputs": [
        {
          "internalType": "uint256",
          "name": "tokenId",
          "type": "uint256"
        }
      ],
      "name": "ownerOf",
      "outputs": [
        {
          "internalType": "address",
          "name": "",
          "type": "address"
        }
      ],
      "stateMutability": "view",
      "type": "function"
    },
    {
      "inputs": [
        {
          "internalType": "address",
          "name": "to",
          "type": "address"
        },
        {
          "internalType": "string",
          "name": "uri",
          "type": "string"
        }
      ],
      "name": "safeMint",
      "outputs": [],
      "stateMutability": "nonpayable",
      "type": "function"
    },
    {
      "inputs": [
        {
          "internalType": "address",
          "name": "from",
          "type": "address"
        },
        {
          "internalType": "address",
          "name": "to",
          "type": "address"
        },
        {
          "internalType": "uint256",
          "name": "tokenId",
          "type": "uint256"
        }
      ],
      "name": "safeTransferFrom",
      "outputs": [],
      "stateMutability": "nonpayable",
      "type": "function"
    },
    {
      "inputs": [
        {
          "internalType": "address",
          "name": "from",
          "type": "address"
        },
        {
          "internalType": "address",
          "name": "to",
          "type": "address"
        },
        {
          "internalType": "uint256",
          "name": "tokenId",
          "type": "uint256"
        },
        {
          "internalType": "bytes",
          "name": "data",
          "type": "bytes"
        }
      ],
      "name": "safeTransferFrom",
      "outputs": [],
      "stateMutability": "nonpayable",
      "type": "function"
    },
    {
      "inputs": [
        {
          "internalType": "uint256",
          "name": "cookieID",
          "type": "uint256"
        }
      ],
      "name": "sendCookieToGossipNetwork",
      "outputs": [],
      "stateMutability": "nonpayable",
      "type": "function"
    },
    {
      "inputs": [
        {
          "internalType": "address",
          "name": "operator",
          "type": "address"
        },
        {
          "internalType": "bool",
          "name": "approved",
          "type": "bool"
        }
      ],
      "name": "setApprovalForAll",
      "outputs": [],
      "stateMutability": "nonpayable",
      "type": "function"
    },
    {
      "inputs": [
        {
          "internalType": "bytes4",
          "name": "interfaceId",
          "type": "bytes4"
        }
      ],
      "name": "supportsInterface",
      "outputs": [
        {
          "internalType": "bool",
          "name": "",
          "type": "bool"
        }
      ],
      "stateMutability": "view",
      "type": "function"
    },
    {
      "inputs": [],
      "name": "symbol",
      "outputs": [
        {
          "internalType": "string",
          "name": "",
          "type": "string"
        }
      ],
      "stateMutability": "view",
      "type": "function"
    },
    {
      "inputs": [
        {
          "internalType": "uint256",
          "name": "tokenId",
          "type": "uint256"
        }
      ],
      "name": "tokenURI",
      "outputs": [
        {
          "internalType": "string",
          "name": "",
          "type": "string"
        }
      ],
      "stateMutability": "view",
      "type": "function"
    },
    {
      "inputs": [
        {
          "internalType": "address",
          "name": "from",
          "type": "address"
        },
        {
          "internalType": "address",
          "name": "to",
          "type": "address"
        },
        {
          "internalType": "uint256",
          "name": "tokenId",
          "type": "uint256"
        }
      ],
      "name": "transferFrom",
      "outputs": [],
      "stateMutability": "nonpayable",
      "type": "function"
    }
  ],
  "bytecode": "0x60806040523480156200001157600080fd5b506040518060400160405280600d81526020016c466f7274756e65436f6f6b696560981b8152506040518060400160405280600381526020016246434f60e81b815250816000908162000065919062000127565b50600162000074828262000127565b5050600160075550620001f3565b634e487b7160e01b600052604160045260246000fd5b600181811c90821680620000ad57607f821691505b602082108103620000ce57634e487b7160e01b600052602260045260246000fd5b50919050565b601f8211156200012257600081815260208120601f850160051c81016020861015620000fd5750805b601f850160051c820191505b818110156200011e5782815560010162000109565b5050505b505050565b81516001600160401b0381111562000143576200014362000082565b6200015b8162000154845462000098565b84620000d4565b602080601f8311600181146200019357600084156200017a5750858301515b600019600386901b1c1916600185901b1785556200011e565b600085815260208120601f198616915b82811015620001c457888601518255948401946001909101908401620001a3565b5085821015620001e35787850151600019600388901b60f8161c191681555b5050505050600190811b01905550565b6141f380620002036000396000f3fe60806040523480156200001157600080fd5b5060043610620001155760003560e01c806370a0823111620000a3578063c87b56dd116200006e578063c87b56dd1462000262578063d204c45e1462000279578063e985e9c51462000290578063f8c58ff114620002cf57600080fd5b806370a08231146200020457806395d89b41146200022a578063a22cb4651462000234578063b88d4fde146200024b57600080fd5b806323b872dd11620000e457806323b872dd14620001a857806342842e0e14620001bf5780636352211e14620001d65780636b7dddd914620001ed57600080fd5b806301ffc9a7146200011a57806306fdde031462000146578063081812fc146200015f578063095ea7b3146200018f575b600080fd5b620001316200012b36600462001552565b620002e6565b60405190151581526020015b60405180910390f35b62000150620002f9565b6040516200013d9190620015c6565b6200017662000170366004620015db565b62000393565b6040516001600160a01b0390911681526020016200013d565b620001a6620001a036600462001612565b620003bc565b005b620001a6620001b93660046200163f565b620004fc565b620001a6620001d03660046200163f565b62000579565b62000176620001e7366004620015db565b62000596565b620001a6620001fe366004620015db565b620005fd565b6200021b6200021536600462001680565b62000743565b6040519081526020016200013d565b62000150620007cb565b620001a6620002453660046200169e565b620007dc565b620001a66200025c36600462001771565b620007ed565b6200015062000273366004620015db565b62000871565b620001a66200028a36600462001819565b6200087e565b62000131620002a13660046200186d565b6001600160a01b03918216600090815260056020908152604080832093909416825291909152205460ff1690565b620001a6620002e0366004620018a5565b620008af565b6000620002f38262000989565b92915050565b6060600080546200030a90620018de565b80601f01602080910402602001604051908101604052809291908181526020018280546200033890620018de565b8015620003895780601f106200035d5761010080835404028352916020019162000389565b820191906000526020600020905b8154815290600101906020018083116200036b57829003601f168201915b5050505050905090565b6000620003a082620009b1565b506000908152600460205260409020546001600160a01b031690565b6000620003c98262000596565b9050806001600160a01b0316836001600160a01b0316036200043c5760405162461bcd60e51b815260206004820152602160248201527f4552433732313a20617070726f76616c20746f2063757272656e74206f776e656044820152603960f91b60648201526084015b60405180910390fd5b336001600160a01b03821614806200047757506001600160a01b038116600090815260056020908152604080832033845290915290205460ff165b620004eb5760405162461bcd60e51b815260206004820152603d60248201527f4552433732313a20617070726f76652063616c6c6572206973206e6f7420746f60448201527f6b656e206f776e6572206f7220617070726f76656420666f7220616c6c000000606482015260840162000433565b620004f7838362000a1a565b505050565b62000508338262000a8a565b6200056c5760405162461bcd60e51b815260206004820152602d60248201527f4552433732313a2063616c6c6572206973206e6f7420746f6b656e206f776e6560448201526c1c881bdc88185c1c1c9bdd9959609a1b606482015260840162000433565b620004f783838362000b0f565b620004f783838360405180602001604052806000815250620007ed565b6000818152600260205260408120546001600160a01b031680620002f35760405162461bcd60e51b815260206004820152601860248201527f4552433732313a20696e76616c696420746f6b656e2049440000000000000000604482015260640162000433565b6000818152600860205260409020546001600160a01b0316156200068a5760405162461bcd60e51b815260206004820152603160248201527f5468697320636f6f6b696520616c726561647920657869737473206f6e20746860448201527f6520476f73736970204e6574776f726b21000000000000000000000000000000606482015260840162000433565b600081336040516200069c906200152d565b9182526001600160a01b03166020820152604001604051809103906000f080158015620006cd573d6000803e3d6000fd5b5060008381526008602090815260409182902080546001600160a01b0319166001600160a01b0385169081179091558251338152918201869052918101919091529091507f9a032bb4300b13578cc6febf6bab5b1f24627ffcc2548f2f41e89e508a3df1c4906060015b60405180910390a15050565b60006001600160a01b038216620007af5760405162461bcd60e51b815260206004820152602960248201527f4552433732313a2061646472657373207a65726f206973206e6f7420612076616044820152683634b21037bbb732b960b91b606482015260840162000433565b506001600160a01b031660009081526003602052604090205490565b6060600180546200030a90620018de565b620007e933838362000cf9565b5050565b620007f9338362000a8a565b6200085d5760405162461bcd60e51b815260206004820152602d60248201527f4552433732313a2063616c6c6572206973206e6f7420746f6b656e206f776e6560448201526c1c881bdc88185c1c1c9bdd9959609a1b606482015260840162000433565b6200086b8484848462000dc9565b50505050565b6060620002f38262000e03565b6007805460009182620008918362001930565b919050559050620008a3838262000f1c565b620004f7818362000f38565b6007543390600090620008c5906001906200194c565b905060008351116200091a5760405162461bcd60e51b815260206004820152601160248201527f4d6574616461746120697320656d707479000000000000000000000000000000604482015260640162000433565b600081815260086020526040902080546001600160a01b03191690556200094282846200087e565b604080516001600160a01b0384168152602081018390527f4f5c09aba770d23ee84764197aca3e24c56c433917823e78cad90965800bf87b910160405180910390a1505050565b60006001600160e01b03198216632483248360e11b1480620002f35750620002f38262001001565b6000818152600260205260409020546001600160a01b031662000a175760405162461bcd60e51b815260206004820152601860248201527f4552433732313a20696e76616c696420746f6b656e2049440000000000000000604482015260640162000433565b50565b600081815260046020526040902080546001600160a01b0319166001600160a01b038416908117909155819062000a518262000596565b6001600160a01b03167f8c5be1e5ebec7d5bd14f71427d1e84f3dd0314c0f7b2291e5b200ac8c7c3b92560405160405180910390a45050565b60008062000a988362000596565b9050806001600160a01b0316846001600160a01b0316148062000ae057506001600160a01b0380821660009081526005602090815260408083209388168352929052205460ff165b8062000b075750836001600160a01b031662000afc8462000393565b6001600160a01b0316145b949350505050565b826001600160a01b031662000b248262000596565b6001600160a01b03161462000b8a5760405162461bcd60e51b815260206004820152602560248201527f4552433732313a207472616e736665722066726f6d20696e636f72726563742060448201526437bbb732b960d91b606482015260840162000433565b6001600160a01b03821662000bee5760405162461bcd60e51b8152602060048201526024808201527f4552433732313a207472616e7366657220746f20746865207a65726f206164646044820152637265737360e01b606482015260840162000433565b826001600160a01b031662000c038262000596565b6001600160a01b03161462000c695760405162461bcd60e51b815260206004820152602560248201527f4552433732313a207472616e736665722066726f6d20696e636f72726563742060448201526437bbb732b960d91b606482015260840162000433565b600081815260046020908152604080832080546001600160a01b03199081169091556001600160a01b0387811680865260038552838620805460001901905590871680865283862080546001019055868652600290945282852080549092168417909155905184937fddf252ad1be2c89b69c2b068fc378daa952ba7f163c4a11628f55a4df523b3ef91a4505050565b816001600160a01b0316836001600160a01b03160362000d5c5760405162461bcd60e51b815260206004820152601960248201527f4552433732313a20617070726f766520746f2063616c6c657200000000000000604482015260640162000433565b6001600160a01b03838116600081815260056020908152604080832094871680845294825291829020805460ff191686151590811790915591519182527f17307eab39ab6107e8899845ad3d59bd9653f200f220920489ca2b5937696c31910160405180910390a3505050565b62000dd684848462000b0f565b62000de48484848462001054565b6200086b5760405162461bcd60e51b8152600401620004339062001962565b606062000e1082620009b1565b6000828152600660205260408120805462000e2b90620018de565b80601f016020809104026020016040519081016040528092919081815260200182805462000e5990620018de565b801562000eaa5780601f1062000e7e5761010080835404028352916020019162000eaa565b820191906000526020600020905b81548152906001019060200180831162000e8c57829003601f168201915b50505050509050600062000ec960408051602081019091526000815290565b9050805160000362000edc575092915050565b81511562000f1157808260405160200162000ef9929190620019bf565b60405160208183030381529060405292505050919050565b62000b078462001162565b620007e9828260405180602001604052806000815250620011df565b6000828152600260205260409020546001600160a01b031662000fb55760405162461bcd60e51b815260206004820152602e60248201527f45524337323155524953746f726167653a2055524920736574206f66206e6f6e60448201526d32bc34b9ba32b73a103a37b5b2b760911b606482015260840162000433565b600082815260066020526040902062000fcf828262001a44565b506040518281527ff8e1a15aba9398e019f0b49df1a4fde98ee17ae345cb5f6b5e2c27f5033e8ce79060200162000737565b60006001600160e01b031982166380ac58cd60e01b14806200103357506001600160e01b03198216635b5e139f60e01b145b80620002f357506301ffc9a760e01b6001600160e01b0319831614620002f3565b60006001600160a01b0384163b156200115757604051630a85bd0160e11b81526001600160a01b0385169063150b7a02906200109b90339089908890889060040162001b11565b6020604051808303816000875af1925050508015620010d9575060408051601f3d908101601f19168201909252620010d69181019062001b4f565b60015b6200113c573d8080156200110a576040519150601f19603f3d011682016040523d82523d6000602084013e6200110f565b606091505b508051600003620011345760405162461bcd60e51b8152600401620004339062001962565b805181602001fd5b6001600160e01b031916630a85bd0160e11b14905062000b07565b506001949350505050565b60606200116f82620009b1565b60006200118760408051602081019091526000815290565b90506000815111620011a95760405180602001604052806000815250620011d8565b80620011b58462001219565b604051602001620011c8929190620019bf565b6040516020818303038152906040525b9392505050565b620011eb8383620012b3565b620011fa600084848462001054565b620004f75760405162461bcd60e51b8152600401620004339062001962565b60606000620012288362001444565b600101905060008167ffffffffffffffff8111156200124b576200124b620016de565b6040519080825280601f01601f19166020018201604052801562001276576020820181803683370190505b5090508181016020015b600019016f181899199a1a9b1b9c1cb0b131b232b360811b600a86061a8153600a85049450846200128057509392505050565b6001600160a01b0382166200130b5760405162461bcd60e51b815260206004820181905260248201527f4552433732313a206d696e7420746f20746865207a65726f2061646472657373604482015260640162000433565b6000818152600260205260409020546001600160a01b031615620013725760405162461bcd60e51b815260206004820152601c60248201527f4552433732313a20746f6b656e20616c7265616479206d696e74656400000000604482015260640162000433565b6000818152600260205260409020546001600160a01b031615620013d95760405162461bcd60e51b815260206004820152601c60248201527f4552433732313a20746f6b656e20616c7265616479206d696e74656400000000604482015260640162000433565b6001600160a01b038216600081815260036020908152604080832080546001019055848352600290915280822080546001600160a01b0319168417905551839291907fddf252ad1be2c89b69c2b068fc378daa952ba7f163c4a11628f55a4df523b3ef908290a45050565b6000807a184f03e93ff9f4daa797ed6e38ed64bf6a1f01000000000000000083106200148e577a184f03e93ff9f4daa797ed6e38ed64bf6a1f010000000000000000830492506040015b6d04ee2d6d415b85acef81000000008310620014bb576d04ee2d6d415b85acef8100000000830492506020015b662386f26fc100008310620014da57662386f26fc10000830492506010015b6305f5e1008310620014f3576305f5e100830492506008015b61271083106200150857612710830492506004015b606483106200151b576064830492506002015b600a8310620002f35760010192915050565b61264e8062001b7083390190565b6001600160e01b03198116811462000a1757600080fd5b6000602082840312156200156557600080fd5b8135620011d8816200153b565b60005b838110156200158f57818101518382015260200162001575565b50506000910152565b60008151808452620015b281602086016020860162001572565b601f01601f19169290920160200192915050565b602081526000620011d8602083018462001598565b600060208284031215620015ee57600080fd5b5035919050565b80356001600160a01b03811681146200160d57600080fd5b919050565b600080604083850312156200162657600080fd5b6200163183620015f5565b946020939093013593505050565b6000806000606084860312156200165557600080fd5b6200166084620015f5565b92506200167060208501620015f5565b9150604084013590509250925092565b6000602082840312156200169357600080fd5b620011d882620015f5565b60008060408385031215620016b257600080fd5b620016bd83620015f5565b915060208301358015158114620016d357600080fd5b809150509250929050565b634e487b7160e01b600052604160045260246000fd5b600067ffffffffffffffff80841115620017125762001712620016de565b604051601f8501601f19908116603f011681019082821181831017156200173d576200173d620016de565b816040528093508581528686860111156200175757600080fd5b858560208301376000602087830101525050509392505050565b600080600080608085870312156200178857600080fd5b6200179385620015f5565b9350620017a360208601620015f5565b925060408501359150606085013567ffffffffffffffff811115620017c757600080fd5b8501601f81018713620017d957600080fd5b620017ea87823560208401620016f4565b91505092959194509250565b600082601f8301126200180857600080fd5b620011d883833560208501620016f4565b600080604083850312156200182d57600080fd5b6200183883620015f5565b9150602083013567ffffffffffffffff8111156200185557600080fd5b6200186385828601620017f6565b9150509250929050565b600080604083850312156200188157600080fd5b6200188c83620015f5565b91506200189c60208401620015f5565b90509250929050565b600060208284031215620018b857600080fd5b813567ffffffffffffffff811115620018d057600080fd5b62000b0784828501620017f6565b600181811c90821680620018f357607f821691505b6020821081036200191457634e487b7160e01b600052602260045260246000fd5b50919050565b634e487b7160e01b600052601160045260246000fd5b6000600182016200194557620019456200191a565b5060010190565b81810381811115620002f357620002f36200191a565b60208082526032908201527f4552433732313a207472616e7366657220746f206e6f6e20455243373231526560408201527f63656976657220696d706c656d656e7465720000000000000000000000000000606082015260800190565b60008351620019d381846020880162001572565b835190830190620019e981836020880162001572565b01949350505050565b601f821115620004f757600081815260208120601f850160051c8101602086101562001a1b5750805b601f850160051c820191505b8181101562001a3c5782815560010162001a27565b505050505050565b815167ffffffffffffffff81111562001a615762001a61620016de565b62001a798162001a728454620018de565b84620019f2565b602080601f83116001811462001ab1576000841562001a985750858301515b600019600386901b1c1916600185901b17855562001a3c565b600085815260208120601f198616915b8281101562001ae25788860151825594840194600190910190840162001ac1565b508582101562001b015787850151600019600388901b60f8161c191681555b5050505050600190811b01905550565b60006001600160a01b0380871683528086166020840152508360408301526080606083015262001b45608083018462001598565b9695505050505050565b60006020828403121562001b6257600080fd5b8151620011d8816200153b56fe60806040523480156200001157600080fd5b506040516200264e3803806200264e8339810160408190526200003491620000c8565b6040518060400160405280600d81526020016c466f7274756e65436f6f6b696560981b8152506040518060400160405280600381526020016246434f60e81b8152508160009081620000879190620001ac565b506001620000968282620001ac565b505050600a91909155600b80546001600160a01b0319166001600160a01b0390921691909117905546600d5562000278565b60008060408385031215620000dc57600080fd5b825160208401519092506001600160a01b0381168114620000fc57600080fd5b809150509250929050565b634e487b7160e01b600052604160045260246000fd5b600181811c908216806200013257607f821691505b6020821081036200015357634e487b7160e01b600052602260045260246000fd5b50919050565b601f821115620001a757600081815260208120601f850160051c81016020861015620001825750805b601f850160051c820191505b81811015620001a3578281556001016200018e565b5050505b505050565b81516001600160401b03811115620001c857620001c862000107565b620001e081620001d984546200011d565b8462000159565b602080601f831160018114620002185760008415620001ff5750858301515b600019600386901b1c1916600185901b178555620001a3565b600085815260208120601f198616915b82811015620002495788860151825594840194600190910190840162000228565b5085821015620002685787850151600019600388901b60f8161c191681555b5050505050600190811b01905550565b6123c680620002886000396000f3fe6080604052600436106101705760003560e01c80634f6ccce7116100d657806395d89b411161007f578063c87b56dd11610059578063c87b56dd146103f0578063e985e9c514610410578063fbd835ba1461045957600080fd5b806395d89b411461039b578063a22cb465146103b0578063b88d4fde146103d057600080fd5b806370a08231116100b057806370a08231146103465780637ae18d7714610366578063945c8ec81461038857600080fd5b80634f6ccce7146102f15780636352211e146103115780636c9c2faf1461033157600080fd5b806323b872dd11610138578063382a0af811610112578063382a0af81461029a5780633b6dba03146102af57806342842e0e146102d157600080fd5b806323b872dd146102455780632e645771146102655780632f745c591461027a57600080fd5b806301ffc9a71461017557806306fdde03146101aa578063081812fc146101cc578063095ea7b31461020457806318160ddd14610226575b600080fd5b34801561018157600080fd5b50610195610190366004611cec565b610479565b60405190151581526020015b60405180910390f35b3480156101b657600080fd5b506101bf61048a565b6040516101a19190611d59565b3480156101d857600080fd5b506101ec6101e7366004611d6c565b61051c565b6040516001600160a01b0390911681526020016101a1565b34801561021057600080fd5b5061022461021f366004611da1565b610543565b005b34801561023257600080fd5b506008545b6040519081526020016101a1565b34801561025157600080fd5b50610224610260366004611dcb565b61065d565b34801561027157600080fd5b506102246106d4565b34801561028657600080fd5b50610237610295366004611da1565b6107a3565b3480156102a657600080fd5b50610224610839565b3480156102bb57600080fd5b506102c4610904565b6040516101a19190611e07565b3480156102dd57600080fd5b506102246102ec366004611dcb565b610ace565b3480156102fd57600080fd5b5061023761030c366004611d6c565b610ae9565b34801561031d57600080fd5b506101ec61032c366004611d6c565b610b7c565b34801561033d57600080fd5b50610237610be1565b34801561035257600080fd5b50610237610361366004611eac565b610bf1565b34801561037257600080fd5b5061037b610c77565b6040516101a19190611ec7565b610224610396366004611f24565b610cd8565b3480156103a757600080fd5b506101bf610df8565b3480156103bc57600080fd5b506102246103cb366004611f3f565b610e07565b3480156103dc57600080fd5b506102246103eb366004611ffe565b610e16565b3480156103fc57600080fd5b506101bf61040b366004611d6c565b610e94565b34801561041c57600080fd5b5061019561042b36600461207a565b6001600160a01b03918216600090815260056020908152604080832093909416825291909152205460ff1690565b34801561046557600080fd5b506102246104743660046120a4565b610f08565b600061048482610fe2565b92915050565b606060008054610499906120ed565b80601f01602080910402602001604051908101604052809291908181526020018280546104c5906120ed565b80156105125780601f106104e757610100808354040283529160200191610512565b820191906000526020600020905b8154815290600101906020018083116104f557829003601f168201915b5050505050905090565b600061052782611007565b506000908152600460205260409020546001600160a01b031690565b600061054e82610b7c565b9050806001600160a01b0316836001600160a01b0316036105c05760405162461bcd60e51b815260206004820152602160248201527f4552433732313a20617070726f76616c20746f2063757272656e74206f776e656044820152603960f91b60648201526084015b60405180910390fd5b336001600160a01b03821614806105dc57506105dc813361042b565b61064e5760405162461bcd60e51b815260206004820152603d60248201527f4552433732313a20617070726f76652063616c6c6572206973206e6f7420746f60448201527f6b656e206f776e6572206f7220617070726f76656420666f7220616c6c00000060648201526084016105b7565b610658838361106e565b505050565b61066733826110dc565b6106c95760405162461bcd60e51b815260206004820152602d60248201527f4552433732313a2063616c6c6572206973206e6f7420746f6b656e206f776e6560448201526c1c881bdc88185c1c1c9bdd9959609a1b60648201526084016105b7565b61065883838361115b565b600b546001600160a01b031633146107415760405162461bcd60e51b815260206004820152602a60248201527f4f6e6c792074686520436f6f6b6965204f776e65722063616e20737461727420604482015269074686520476f737369760b41b60648201526084016105b7565b600e5460ff16156107945760405162461bcd60e51b815260206004820152601b60248201527f476f737369702068617320616c726561647920737461727465642e000000000060448201526064016105b7565b600e805460ff19166001179055565b60006107ae83610bf1565b82106108105760405162461bcd60e51b815260206004820152602b60248201527f455243373231456e756d657261626c653a206f776e657220696e646578206f7560448201526a74206f6620626f756e647360a81b60648201526084016105b7565b506001600160a01b03919091166000908152600660209081526040808320938352929052205490565b600b546001600160a01b031633146108a65760405162461bcd60e51b815260206004820152602a60248201527f4f6e6c792074686520436f6f6b6965204f776e65722063616e20737461727420604482015269074686520476f737369760b41b60648201526084016105b7565b600e5460ff166108f85760405162461bcd60e51b815260206004820181905260248201527f476f7373697020686173206e6f74206265656e2073746172746564207965742e60448201526064016105b7565b600e805460ff19169055565b426000908152600f60205260408120546060919067ffffffffffffffff81111561093057610930611f72565b60405190808252806020026020018201604052801561096357816020015b606081526020019060019003908161094e5790505b50905060005b426000908152600f6020526040902054811015610ac85760408051600180825281830190925290816020015b6060815260200190600190039081610995579050508282815181106109bc576109bc612121565b6020026020010181905250600f600042815260200190815260200160002081815481106109eb576109eb612121565b906000526020600020018054610a00906120ed565b80601f0160208091040260200160405190810160405280929190818152602001828054610a2c906120ed565b8015610a795780601f10610a4e57610100808354040283529160200191610a79565b820191906000526020600020905b815481529060010190602001808311610a5c57829003601f168201915b5050505050828281518110610a9057610a90612121565b6020026020010151600081518110610aaa57610aaa612121565b60200260200101819052508080610ac09061214d565b915050610969565b50919050565b61065883838360405180602001604052806000815250610e16565b6000610af460085490565b8210610b575760405162461bcd60e51b815260206004820152602c60248201527f455243373231456e756d657261626c653a20676c6f62616c20696e646578206f60448201526b7574206f6620626f756e647360a01b60648201526084016105b7565b60088281548110610b6a57610b6a612121565b90600052602060002001549050919050565b6000818152600260205260408120546001600160a01b0316806104845760405162461bcd60e51b815260206004820152601860248201527f4552433732313a20696e76616c696420746f6b656e204944000000000000000060448201526064016105b7565b6000610bec60085490565b905090565b60006001600160a01b038216610c5b5760405162461bcd60e51b815260206004820152602960248201527f4552433732313a2061646472657373207a65726f206973206e6f7420612076616044820152683634b21037bbb732b960b91b60648201526084016105b7565b506001600160a01b031660009081526003602052604090205490565b6060600c80548060200260200160405190810160405280929190818152602001828054801561051257602002820191906000526020600020905b81546001600160a01b03168152600190910190602001808311610cb1575050505050905090565b600b546001600160a01b03163303610d435760405162461bcd60e51b815260206004820152602860248201527f596f752063616e6e6f742073706563756c617465206f6e20796f7572206f776e60448201526720636f6f6b69652160c01b60648201526084016105b7565b600e5460ff16610dbb5760405162461bcd60e51b815260206004820152603260248201527f54686520636f6f6b6965206f776e65722068617320636c6f736564207468697360448201527f2074687265616420666f7220676f73736970000000000000000000000000000060648201526084016105b7565b6040805133815282151560208201527f57bf161eca343edadb6bfd98988b22edbe95c506885f2e773f815c6c23934c0f910160405180910390a150565b606060018054610499906120ed565b610e12338383611348565b5050565b610e2033836110dc565b610e825760405162461bcd60e51b815260206004820152602d60248201527f4552433732313a2063616c6c6572206973206e6f7420746f6b656e206f776e6560448201526c1c881bdc88185c1c1c9bdd9959609a1b60648201526084016105b7565b610e8e84848484611416565b50505050565b6060610e9f82611007565b6000610eb660408051602081019091526000815290565b90506000815111610ed65760405180602001604052806000815250610f01565b80610ee084611494565b604051602001610ef1929190612166565b6040516020818303038152906040525b9392505050565b600e5460ff16610f805760405162461bcd60e51b815260206004820152603560248201527f506c65617365207761697420666f722074686520436f6f6b6965204f776e657260448201527f20746f2073746172742074686520476f737369702e000000000000000000000060648201526084016105b7565b6040518060400160405280610f9f336001600160a01b03166014611527565b604051602001610faf9190612195565b60408051601f198184030181529181529082526020918201849052426000908152600f9092529020610e12916002611c19565b60006001600160e01b0319821663780e9d6360e01b14806104845750610484826116c3565b6000818152600260205260409020546001600160a01b031661106b5760405162461bcd60e51b815260206004820152601860248201527f4552433732313a20696e76616c696420746f6b656e204944000000000000000060448201526064016105b7565b50565b600081815260046020526040902080546001600160a01b0319166001600160a01b03841690811790915581906110a382610b7c565b6001600160a01b03167f8c5be1e5ebec7d5bd14f71427d1e84f3dd0314c0f7b2291e5b200ac8c7c3b92560405160405180910390a45050565b6000806110e883610b7c565b9050806001600160a01b0316846001600160a01b0316148061112f57506001600160a01b0380821660009081526005602090815260408083209388168352929052205460ff165b806111535750836001600160a01b03166111488461051c565b6001600160a01b0316145b949350505050565b826001600160a01b031661116e82610b7c565b6001600160a01b0316146111d25760405162461bcd60e51b815260206004820152602560248201527f4552433732313a207472616e736665722066726f6d20696e636f72726563742060448201526437bbb732b960d91b60648201526084016105b7565b6001600160a01b0382166112345760405162461bcd60e51b8152602060048201526024808201527f4552433732313a207472616e7366657220746f20746865207a65726f206164646044820152637265737360e01b60648201526084016105b7565b6112418383836001611713565b826001600160a01b031661125482610b7c565b6001600160a01b0316146112b85760405162461bcd60e51b815260206004820152602560248201527f4552433732313a207472616e736665722066726f6d20696e636f72726563742060448201526437bbb732b960d91b60648201526084016105b7565b600081815260046020908152604080832080546001600160a01b03199081169091556001600160a01b0387811680865260038552838620805460001901905590871680865283862080546001019055868652600290945282852080549092168417909155905184937fddf252ad1be2c89b69c2b068fc378daa952ba7f163c4a11628f55a4df523b3ef91a4505050565b816001600160a01b0316836001600160a01b0316036113a95760405162461bcd60e51b815260206004820152601960248201527f4552433732313a20617070726f766520746f2063616c6c65720000000000000060448201526064016105b7565b6001600160a01b03838116600081815260056020908152604080832094871680845294825291829020805460ff191686151590811790915591519182527f17307eab39ab6107e8899845ad3d59bd9653f200f220920489ca2b5937696c31910160405180910390a3505050565b61142184848461115b565b61142d8484848461171f565b610e8e5760405162461bcd60e51b815260206004820152603260248201527f4552433732313a207472616e7366657220746f206e6f6e20455243373231526560448201527131b2b4bb32b91034b6b83632b6b2b73a32b960711b60648201526084016105b7565b606060006114a18361186b565b600101905060008167ffffffffffffffff8111156114c1576114c1611f72565b6040519080825280601f01601f1916602001820160405280156114eb576020820181803683370190505b5090508181016020015b600019016f181899199a1a9b1b9c1cb0b131b232b360811b600a86061a8153600a85049450846114f557509392505050565b606060006115368360026121bf565b6115419060026121d6565b67ffffffffffffffff81111561155957611559611f72565b6040519080825280601f01601f191660200182016040528015611583576020820181803683370190505b509050600360fc1b8160008151811061159e5761159e612121565b60200101906001600160f81b031916908160001a905350600f60fb1b816001815181106115cd576115cd612121565b60200101906001600160f81b031916908160001a90535060006115f18460026121bf565b6115fc9060016121d6565b90505b6001811115611674576f181899199a1a9b1b9c1cb0b131b232b360811b85600f166010811061163057611630612121565b1a60f81b82828151811061164657611646612121565b60200101906001600160f81b031916908160001a90535060049490941c9361166d816121e9565b90506115ff565b508315610f015760405162461bcd60e51b815260206004820181905260248201527f537472696e67733a20686578206c656e67746820696e73756666696369656e7460448201526064016105b7565b60006001600160e01b031982166380ac58cd60e01b14806116f457506001600160e01b03198216635b5e139f60e01b145b8061048457506301ffc9a760e01b6001600160e01b0319831614610484565b610e8e8484848461194d565b60006001600160a01b0384163b1561186057604051630a85bd0160e11b81526001600160a01b0385169063150b7a0290611763903390899088908890600401612200565b6020604051808303816000875af192505050801561179e575060408051601f3d908101601f1916820190925261179b9181019061223c565b60015b611846573d8080156117cc576040519150601f19603f3d011682016040523d82523d6000602084013e6117d1565b606091505b50805160000361183e5760405162461bcd60e51b815260206004820152603260248201527f4552433732313a207472616e7366657220746f206e6f6e20455243373231526560448201527131b2b4bb32b91034b6b83632b6b2b73a32b960711b60648201526084016105b7565b805181602001fd5b6001600160e01b031916630a85bd0160e11b149050611153565b506001949350505050565b6000807a184f03e93ff9f4daa797ed6e38ed64bf6a1f01000000000000000083106118b4577a184f03e93ff9f4daa797ed6e38ed64bf6a1f010000000000000000830492506040015b6d04ee2d6d415b85acef810000000083106118e0576d04ee2d6d415b85acef8100000000830492506020015b662386f26fc1000083106118fe57662386f26fc10000830492506010015b6305f5e1008310611916576305f5e100830492506008015b612710831061192a57612710830492506004015b6064831061193c576064830492506002015b600a83106104845760010192915050565b60018111156119c45760405162461bcd60e51b815260206004820152603560248201527f455243373231456e756d657261626c653a20636f6e736563757469766520747260448201527f616e7366657273206e6f7420737570706f72746564000000000000000000000060648201526084016105b7565b816001600160a01b038516611a2057611a1b81600880546000838152600960205260408120829055600182018355919091527ff3f7a9fe364faab93b216da50a3214154f22a0a2b415b23a84c8169e8b636ee30155565b611a43565b836001600160a01b0316856001600160a01b031614611a4357611a438582611a89565b6001600160a01b038416611a5f57611a5a81611b26565b611a82565b846001600160a01b0316846001600160a01b031614611a8257611a828482611bd5565b5050505050565b60006001611a9684610bf1565b611aa09190612259565b600083815260076020526040902054909150808214611af3576001600160a01b03841660009081526006602090815260408083208584528252808320548484528184208190558352600790915290208190555b5060009182526007602090815260408084208490556001600160a01b039094168352600681528383209183525290812055565b600854600090611b3890600190612259565b60008381526009602052604081205460088054939450909284908110611b6057611b60612121565b906000526020600020015490508060088381548110611b8157611b81612121565b6000918252602080832090910192909255828152600990915260408082208490558582528120556008805480611bb957611bb961226c565b6001900381819060005260206000200160009055905550505050565b6000611be083610bf1565b6001600160a01b039093166000908152600660209081526040808320868452825280832085905593825260079052919091209190915550565b828054828255906000526020600020908101928215611c5f579160200282015b82811115611c5f5782518290611c4f90826122d0565b5091602001919060010190611c39565b50611c6b929150611c6f565b5090565b80821115611c6b576000611c838282611c8c565b50600101611c6f565b508054611c98906120ed565b6000825580601f10611ca8575050565b601f01602090049060005260206000209081019061106b91905b80821115611c6b5760008155600101611cc2565b6001600160e01b03198116811461106b57600080fd5b600060208284031215611cfe57600080fd5b8135610f0181611cd6565b60005b83811015611d24578181015183820152602001611d0c565b50506000910152565b60008151808452611d45816020860160208601611d09565b601f01601f19169290920160200192915050565b602081526000610f016020830184611d2d565b600060208284031215611d7e57600080fd5b5035919050565b80356001600160a01b0381168114611d9c57600080fd5b919050565b60008060408385031215611db457600080fd5b611dbd83611d85565b946020939093013593505050565b600080600060608486031215611de057600080fd5b611de984611d85565b9250611df760208501611d85565b9150604084013590509250925092565b6000602080830181845280855180835260408601915060059250604081841b8701018488016000805b84811015611e9d57898403603f19018652825180518086529089019089860190808a1b87018b01855b82811015611e8757601f19898303018452611e75828651611d2d565b948d0194938d01939150600101611e59565b50988b0198965050509288019250600101611e30565b50919998505050505050505050565b600060208284031215611ebe57600080fd5b610f0182611d85565b6020808252825182820181905260009190848201906040850190845b81811015611f085783516001600160a01b031683529284019291840191600101611ee3565b50909695505050505050565b80358015158114611d9c57600080fd5b600060208284031215611f3657600080fd5b610f0182611f14565b60008060408385031215611f5257600080fd5b611f5b83611d85565b9150611f6960208401611f14565b90509250929050565b634e487b7160e01b600052604160045260246000fd5b600067ffffffffffffffff80841115611fa357611fa3611f72565b604051601f8501601f19908116603f01168101908282118183101715611fcb57611fcb611f72565b81604052809350858152868686011115611fe457600080fd5b858560208301376000602087830101525050509392505050565b6000806000806080858703121561201457600080fd5b61201d85611d85565b935061202b60208601611d85565b925060408501359150606085013567ffffffffffffffff81111561204e57600080fd5b8501601f8101871361205f57600080fd5b61206e87823560208401611f88565b91505092959194509250565b6000806040838503121561208d57600080fd5b61209683611d85565b9150611f6960208401611d85565b6000602082840312156120b657600080fd5b813567ffffffffffffffff8111156120cd57600080fd5b8201601f810184136120de57600080fd5b61115384823560208401611f88565b600181811c9082168061210157607f821691505b602082108103610ac857634e487b7160e01b600052602260045260246000fd5b634e487b7160e01b600052603260045260246000fd5b634e487b7160e01b600052601160045260246000fd5b60006001820161215f5761215f612137565b5060010190565b60008351612178818460208801611d09565b83519083019061218c818360208801611d09565b01949350505050565b61060f60f31b8152600082516121b2816002850160208701611d09565b9190910160020192915050565b808202811582820484141761048457610484612137565b8082018082111561048457610484612137565b6000816121f8576121f8612137565b506000190190565b60006001600160a01b038087168352808616602084015250836040830152608060608301526122326080830184611d2d565b9695505050505050565b60006020828403121561224e57600080fd5b8151610f0181611cd6565b8181038181111561048457610484612137565b634e487b7160e01b600052603160045260246000fd5b601f82111561065857600081815260208120601f850160051c810160208610156122a95750805b601f850160051c820191505b818110156122c8578281556001016122b5565b505050505050565b815167ffffffffffffffff8111156122ea576122ea611f72565b6122fe816122f884546120ed565b84612282565b602080601f831160018114612333576000841561231b5750858301515b600019600386901b1c1916600185901b1785556122c8565b600085815260208120601f198616915b8281101561236257888601518255948401946001909101908401612343565b50858210156123805787850151600019600388901b60f8161c191681555b5050505050600190811b0190555056fea264697066735822122036bd430feed6b13b6c4b9f15a46087f9c7bc74bfb5d0167bd4af6d689beb370464736f6c63430008140033a2646970667358221220506c384a67700a487a8b7193d0b2ef263ae168182dec56851c7aa66f2112f49264736f6c63430008140033",
  "linkReferences": {},
  "deployedLinkReferences": {}
}