{
  "_format": "hh-sol-artifact-1",
  "contractName": "OracularProtocol",
  "sourceName": "contracts/OracularProtocol.sol",
  "abi": [
    {
      "inputs": [],
      "stateMutability": "nonpayable",
      "type": "constructor"
    },
    {
      "anonymous": false,
      "inputs": [
        {
          "indexed": true,
          "internalType": "address",
          "name": "owner",
          "type": "address"
        },
        {
          "indexed": true,
          "internalType": "address",
          "name": "approved",
          "type": "address"
        },
        {
          "indexed": true,
          "internalType": "uint256",
          "name": "tokenId",
          "type": "uint256"
        }
      ],
      "name": "Approval",
      "type": "event"
    },
    {
      "anonymous": false,
      "inputs": [
        {
          "indexed": true,
          "internalType": "address",
          "name": "owner",
          "type": "address"
        },
        {
          "indexed": true,
          "internalType": "address",
          "name": "operator",
          "type": "address"
        },
        {
          "indexed": false,
          "internalType": "bool",
          "name": "approved",
          "type": "bool"
        }
      ],
      "name": "ApprovalForAll",
      "type": "event"
    },
    {
      "anonymous": false,
      "inputs": [
        {
          "indexed": false,
          "internalType": "uint256",
          "name": "_fromTokenId",
          "type": "uint256"
        },
        {
          "indexed": false,
          "internalType": "uint256",
          "name": "_toTokenId",
          "type": "uint256"
        }
      ],
      "name": "BatchMetadataUpdate",
      "type": "event"
    },
    {
      "anonymous": false,
      "inputs": [
        {
          "indexed": false,
          "internalType": "address",
          "name": "tokenOwner",
          "type": "address"
        },
        {
          "indexed": false,
          "internalType": "uint256",
          "name": "tokenId",
          "type": "uint256"
        },
        {
          "indexed": false,
          "internalType": "string",
          "name": "uri",
          "type": "string"
        }
      ],
      "name": "CookieMinted",
      "type": "event"
    },
    {
      "anonymous": false,
      "inputs": [
        {
          "indexed": false,
          "internalType": "address",
          "name": "tokenOwner",
          "type": "address"
        },
        {
          "indexed": false,
          "internalType": "uint256",
          "name": "tokenId",
          "type": "uint256"
        },
        {
          "indexed": false,
          "internalType": "address",
          "name": "gossipNetworkId",
          "type": "address"
        }
      ],
      "name": "CookieSentToGossip",
      "type": "event"
    },
    {
      "anonymous": false,
      "inputs": [
        {
          "indexed": false,
          "internalType": "address",
          "name": "speculator",
          "type": "address"
        },
        {
          "indexed": false,
          "internalType": "uint256",
          "name": "speculationAmt",
          "type": "uint256"
        },
        {
          "indexed": false,
          "internalType": "uint256",
          "name": "cookieId",
          "type": "uint256"
        },
        {
          "indexed": false,
          "internalType": "bool",
          "name": "speculation",
          "type": "bool"
        }
      ],
      "name": "ISpeculated",
      "type": "event"
    },
    {
      "anonymous": false,
      "inputs": [
        {
          "indexed": false,
          "internalType": "uint256",
          "name": "_tokenId",
          "type": "uint256"
        }
      ],
      "name": "MetadataUpdate",
      "type": "event"
    },
    {
      "anonymous": false,
      "inputs": [
        {
          "indexed": true,
          "internalType": "address",
          "name": "from",
          "type": "address"
        },
        {
          "indexed": true,
          "internalType": "address",
          "name": "to",
          "type": "address"
        },
        {
          "indexed": true,
          "internalType": "uint256",
          "name": "tokenId",
          "type": "uint256"
        }
      ],
      "name": "Transfer",
      "type": "event"
    },
    {
      "inputs": [
        {
          "internalType": "address",
          "name": "to",
          "type": "address"
        },
        {
          "internalType": "uint256",
          "name": "tokenId",
          "type": "uint256"
        }
      ],
      "name": "approve",
      "outputs": [],
      "stateMutability": "nonpayable",
      "type": "function"
    },
    {
      "inputs": [
        {
          "internalType": "address",
          "name": "owner",
          "type": "address"
        }
      ],
      "name": "balanceOf",
      "outputs": [
        {
          "internalType": "uint256",
          "name": "",
          "type": "uint256"
        }
      ],
      "stateMutability": "view",
      "type": "function"
    },
    {
      "inputs": [
        {
          "internalType": "uint256",
          "name": "tokenId",
          "type": "uint256"
        }
      ],
      "name": "getApproved",
      "outputs": [
        {
          "internalType": "address",
          "name": "",
          "type": "address"
        }
      ],
      "stateMutability": "view",
      "type": "function"
    },
    {
      "inputs": [
        {
          "internalType": "uint256",
          "name": "tokenId",
          "type": "uint256"
        }
      ],
      "name": "getCookieMap",
      "outputs": [
        {
          "internalType": "address",
          "name": "",
          "type": "address"
        }
      ],
      "stateMutability": "view",
      "type": "function"
    },
    {
      "inputs": [
        {
          "internalType": "address",
          "name": "speculator",
          "type": "address"
        },
        {
          "internalType": "uint256",
          "name": "speculationAmount",
          "type": "uint256"
        },
        {
          "internalType": "uint256",
          "name": "cookieId",
          "type": "uint256"
        },
        {
          "internalType": "bool",
          "name": "speculaton",
          "type": "bool"
        }
      ],
      "name": "iSpeculate",
      "outputs": [],
      "stateMutability": "nonpayable",
      "type": "function"
    },
    {
      "inputs": [
        {
          "internalType": "address",
          "name": "owner",
          "type": "address"
        },
        {
          "internalType": "address",
          "name": "operator",
          "type": "address"
        }
      ],
      "name": "isApprovedForAll",
      "outputs": [
        {
          "internalType": "bool",
          "name": "",
          "type": "bool"
        }
      ],
      "stateMutability": "view",
      "type": "function"
    },
    {
      "inputs": [
        {
          "internalType": "string",
          "name": "_metadata",
          "type": "string"
        }
      ],
      "name": "mintMyCookie",
      "outputs": [],
      "stateMutability": "nonpayable",
      "type": "function"
    },
    {
      "inputs": [],
      "name": "name",
      "outputs": [
        {
          "internalType": "string",
          "name": "",
          "type": "string"
        }
      ],
      "stateMutability": "view",
      "type": "function"
    },
    {
      "inputs": [
        {
          "internalType": "uint256",
          "name": "tokenId",
          "type": "uint256"
        }
      ],
      "name": "ownerOf",
      "outputs": [
        {
          "internalType": "address",
          "name": "",
          "type": "address"
        }
      ],
      "stateMutability": "view",
      "type": "function"
    },
    {
      "inputs": [
        {
          "internalType": "address",
          "name": "to",
          "type": "address"
        },
        {
          "internalType": "string",
          "name": "uri",
          "type": "string"
        }
      ],
      "name": "safeMint",
      "outputs": [],
      "stateMutability": "nonpayable",
      "type": "function"
    },
    {
      "inputs": [
        {
          "internalType": "address",
          "name": "from",
          "type": "address"
        },
        {
          "internalType": "address",
          "name": "to",
          "type": "address"
        },
        {
          "internalType": "uint256",
          "name": "tokenId",
          "type": "uint256"
        }
      ],
      "name": "safeTransferFrom",
      "outputs": [],
      "stateMutability": "nonpayable",
      "type": "function"
    },
    {
      "inputs": [
        {
          "internalType": "address",
          "name": "from",
          "type": "address"
        },
        {
          "internalType": "address",
          "name": "to",
          "type": "address"
        },
        {
          "internalType": "uint256",
          "name": "tokenId",
          "type": "uint256"
        },
        {
          "internalType": "bytes",
          "name": "data",
          "type": "bytes"
        }
      ],
      "name": "safeTransferFrom",
      "outputs": [],
      "stateMutability": "nonpayable",
      "type": "function"
    },
    {
      "inputs": [
        {
          "internalType": "uint256",
          "name": "cookieID",
          "type": "uint256"
        }
      ],
      "name": "sendCookieToGossipNetwork",
      "outputs": [],
      "stateMutability": "nonpayable",
      "type": "function"
    },
    {
      "inputs": [
        {
          "internalType": "address",
          "name": "operator",
          "type": "address"
        },
        {
          "internalType": "bool",
          "name": "approved",
          "type": "bool"
        }
      ],
      "name": "setApprovalForAll",
      "outputs": [],
      "stateMutability": "nonpayable",
      "type": "function"
    },
    {
      "inputs": [
        {
          "internalType": "bytes4",
          "name": "interfaceId",
          "type": "bytes4"
        }
      ],
      "name": "supportsInterface",
      "outputs": [
        {
          "internalType": "bool",
          "name": "",
          "type": "bool"
        }
      ],
      "stateMutability": "view",
      "type": "function"
    },
    {
      "inputs": [],
      "name": "symbol",
      "outputs": [
        {
          "internalType": "string",
          "name": "",
          "type": "string"
        }
      ],
      "stateMutability": "view",
      "type": "function"
    },
    {
      "inputs": [
        {
          "internalType": "uint256",
          "name": "tokenId",
          "type": "uint256"
        }
      ],
      "name": "tokenURI",
      "outputs": [
        {
          "internalType": "string",
          "name": "",
          "type": "string"
        }
      ],
      "stateMutability": "view",
      "type": "function"
    },
    {
      "inputs": [
        {
          "internalType": "address",
          "name": "from",
          "type": "address"
        },
        {
          "internalType": "address",
          "name": "to",
          "type": "address"
        },
        {
          "internalType": "uint256",
          "name": "tokenId",
          "type": "uint256"
        }
      ],
      "name": "transferFrom",
      "outputs": [],
      "stateMutability": "nonpayable",
      "type": "function"
    }
  ],
  "bytecode": "0x60806040523480156200001157600080fd5b506040518060400160405280600d81526020016c466f7274756e65436f6f6b696560981b8152506040518060400160405280600381526020016246434f60e81b815250816000908162000065919062000127565b50600162000074828262000127565b5050600160075550620001f3565b634e487b7160e01b600052604160045260246000fd5b600181811c90821680620000ad57607f821691505b602082108103620000ce57634e487b7160e01b600052602260045260246000fd5b50919050565b601f8211156200012257600081815260208120601f850160051c81016020861015620000fd5750805b601f850160051c820191505b818110156200011e5782815560010162000109565b5050505b505050565b81516001600160401b0381111562000143576200014362000082565b6200015b8162000154845462000098565b84620000d4565b602080601f8311600181146200019357600084156200017a5750858301515b600019600386901b1c1916600185901b1785556200011e565b600085815260208120601f198616915b82811015620001c457888601518255948401946001909101908401620001a3565b5085821015620001e35787850151600019600388901b60f8161c191681555b5050505050600190811b01905550565b6143a180620002036000396000f3fe60806040523480156200001157600080fd5b50600436106200012d5760003560e01c806395d89b4111620000af578063b88d4fde116200007a578063b88d4fde14620002a6578063c87b56dd14620002bd578063d204c45e14620002d4578063e985e9c514620002eb578063f8c58ff1146200032a57600080fd5b806395d89b4114620002425780639bd75c1c146200024c5780639f3fad211462000263578063a22cb465146200028f57600080fd5b806323b872dd11620000fc57806323b872dd14620001c057806342842e0e14620001d75780636352211e14620001ee5780636b7dddd9146200020557806370a08231146200021c57600080fd5b806301ffc9a7146200013257806306fdde03146200015e578063081812fc1462000177578063095ea7b314620001a7575b600080fd5b620001496200014336600462001777565b62000341565b60405190151581526020015b60405180910390f35b6200016862000354565b604051620001559190620017eb565b6200018e6200018836600462001800565b620003ee565b6040516001600160a01b03909116815260200162000155565b620001be620001b836600462001837565b62000417565b005b620001be620001d136600462001864565b6200053b565b620001be620001e836600462001864565b620005b8565b6200018e620001ff36600462001800565b620005d5565b620001be6200021636600462001800565b6200063c565b620002336200022d366004620018a5565b62000808565b60405190815260200162000155565b6200016862000890565b620001be6200025d366004620018d4565b620008a1565b6200018e6200027436600462001800565b6000908152600860205260409020546001600160a01b031690565b620001be620002a03660046200191f565b620008f9565b620001be620002b7366004620019ea565b6200090a565b62000168620002ce36600462001800565b6200098e565b620001be620002e536600462001a92565b6200099b565b62000149620002fc36600462001ae6565b6001600160a01b03918216600090815260056020908152604080832093909416825291909152205460ff1690565b620001be6200033b36600462001b15565b620009cc565b60006200034e8262000a98565b92915050565b606060008054620003659062001b4e565b80601f0160208091040260200160405190810160405280929190818152602001828054620003939062001b4e565b8015620003e45780601f10620003b857610100808354040283529160200191620003e4565b820191906000526020600020905b815481529060010190602001808311620003c657829003601f168201915b5050505050905090565b6000620003fb8262000ac0565b506000908152600460205260409020546001600160a01b031690565b60006200042482620005d5565b9050806001600160a01b0316836001600160a01b031603620004975760405162461bcd60e51b815260206004820152602160248201527f4552433732313a20617070726f76616c20746f2063757272656e74206f776e656044820152603960f91b60648201526084015b60405180910390fd5b336001600160a01b0382161480620004b65750620004b68133620002fc565b6200052a5760405162461bcd60e51b815260206004820152603d60248201527f4552433732313a20617070726f76652063616c6c6572206973206e6f7420746f60448201527f6b656e206f776e6572206f7220617070726f76656420666f7220616c6c00000060648201526084016200048e565b62000536838362000b29565b505050565b62000547338262000b99565b620005ab5760405162461bcd60e51b815260206004820152602d60248201527f4552433732313a2063616c6c6572206973206e6f7420746f6b656e206f776e6560448201526c1c881bdc88185c1c1c9bdd9959609a1b60648201526084016200048e565b6200053683838362000c1e565b62000536838383604051806020016040528060008152506200090a565b6000818152600260205260408120546001600160a01b0316806200034e5760405162461bcd60e51b815260206004820152601860248201527f4552433732313a20696e76616c696420746f6b656e204944000000000000000060448201526064016200048e565b6000818152600860205260409020546001600160a01b031615620006c95760405162461bcd60e51b815260206004820152603160248201527f5468697320636f6f6b696520616c726561647920657869737473206f6e20746860448201527f6520476f73736970204e6574776f726b2100000000000000000000000000000060648201526084016200048e565b60004233604051602001620006fa92919091825260601b6bffffffffffffffffffffffff1916602082015260340190565b604051602081830303815290604052805190602001209050600062000786600083604051806020016200072d9062001752565b601f1982820381018352601f90910116604081815260208201899052339082015260600160408051601f198184030181529082905262000771929160200162001b8a565b60405160208183030381529060405262000e08565b905062000795338285620005b8565b60008381526008602090815260409182902080546001600160a01b0319166001600160a01b0385169081179091558251338152918201869052918101919091527f9a032bb4300b13578cc6febf6bab5b1f24627ffcc2548f2f41e89e508a3df1c4906060015b60405180910390a1505050565b60006001600160a01b038216620008745760405162461bcd60e51b815260206004820152602960248201527f4552433732313a2061646472657373207a65726f206973206e6f7420612076616044820152683634b21037bbb732b960b91b60648201526084016200048e565b506001600160a01b031660009081526003602052604090205490565b606060018054620003659062001b4e565b604080516001600160a01b03861681526020810185905290810183905281151560608201527fac1914cba483f0254be14938d6a59d05fd31e28d3d32eddc032bae2d74a93b9c9060800160405180910390a150505050565b6200090633838362000f19565b5050565b62000916338362000b99565b6200097a5760405162461bcd60e51b815260206004820152602d60248201527f4552433732313a2063616c6c6572206973206e6f7420746f6b656e206f776e6560448201526c1c881bdc88185c1c1c9bdd9959609a1b60648201526084016200048e565b620009888484848462000fe9565b50505050565b60606200034e8262001023565b6007805460009182620009ae8362001bbd565b919050559050620009c083826200113c565b62000536818362001158565b6007805433916000919082620009e28362001bbd565b919050559050600083511162000a3b5760405162461bcd60e51b815260206004820152601160248201527f4d6574616461746120697320656d70747900000000000000000000000000000060448201526064016200048e565b600081815260086020526040902080546001600160a01b031916905562000a6382846200099b565b7f6089ed88f18d6c01e0355dcb50be2f1ce8b71d482db05b716954151b3a5966bf828285604051620007fb9392919062001be5565b60006001600160e01b03198216632483248360e11b14806200034e57506200034e8262001227565b6000818152600260205260409020546001600160a01b031662000b265760405162461bcd60e51b815260206004820152601860248201527f4552433732313a20696e76616c696420746f6b656e204944000000000000000060448201526064016200048e565b50565b600081815260046020526040902080546001600160a01b0319166001600160a01b038416908117909155819062000b6082620005d5565b6001600160a01b03167f8c5be1e5ebec7d5bd14f71427d1e84f3dd0314c0f7b2291e5b200ac8c7c3b92560405160405180910390a45050565b60008062000ba783620005d5565b9050806001600160a01b0316846001600160a01b0316148062000bef57506001600160a01b0380821660009081526005602090815260408083209388168352929052205460ff165b8062000c165750836001600160a01b031662000c0b84620003ee565b6001600160a01b0316145b949350505050565b826001600160a01b031662000c3382620005d5565b6001600160a01b03161462000c995760405162461bcd60e51b815260206004820152602560248201527f4552433732313a207472616e736665722066726f6d20696e636f72726563742060448201526437bbb732b960d91b60648201526084016200048e565b6001600160a01b03821662000cfd5760405162461bcd60e51b8152602060048201526024808201527f4552433732313a207472616e7366657220746f20746865207a65726f206164646044820152637265737360e01b60648201526084016200048e565b826001600160a01b031662000d1282620005d5565b6001600160a01b03161462000d785760405162461bcd60e51b815260206004820152602560248201527f4552433732313a207472616e736665722066726f6d20696e636f72726563742060448201526437bbb732b960d91b60648201526084016200048e565b600081815260046020908152604080832080546001600160a01b03199081169091556001600160a01b0387811680865260038552838620805460001901905590871680865283862080546001019055868652600290945282852080549092168417909155905184937fddf252ad1be2c89b69c2b068fc378daa952ba7f163c4a11628f55a4df523b3ef91a4505050565b60008347101562000e5c5760405162461bcd60e51b815260206004820152601d60248201527f437265617465323a20696e73756666696369656e742062616c616e636500000060448201526064016200048e565b815160000362000eaf5760405162461bcd60e51b815260206004820181905260248201527f437265617465323a2062797465636f6465206c656e677468206973207a65726f60448201526064016200048e565b8282516020840186f590506001600160a01b03811662000f125760405162461bcd60e51b815260206004820152601960248201527f437265617465323a204661696c6564206f6e206465706c6f790000000000000060448201526064016200048e565b9392505050565b816001600160a01b0316836001600160a01b03160362000f7c5760405162461bcd60e51b815260206004820152601960248201527f4552433732313a20617070726f766520746f2063616c6c65720000000000000060448201526064016200048e565b6001600160a01b03838116600081815260056020908152604080832094871680845294825291829020805460ff191686151590811790915591519182527f17307eab39ab6107e8899845ad3d59bd9653f200f220920489ca2b5937696c31910160405180910390a3505050565b62000ff684848462000c1e565b62001004848484846200127a565b620009885760405162461bcd60e51b81526004016200048e9062001c18565b6060620010308262000ac0565b600082815260066020526040812080546200104b9062001b4e565b80601f0160208091040260200160405190810160405280929190818152602001828054620010799062001b4e565b8015620010ca5780601f106200109e57610100808354040283529160200191620010ca565b820191906000526020600020905b815481529060010190602001808311620010ac57829003601f168201915b505050505090506000620010e960408051602081019091526000815290565b90508051600003620010fc575092915050565b815115620011315780826040516020016200111992919062001b8a565b60405160208183030381529060405292505050919050565b62000c168462001388565b6200090682826040518060200160405280600081525062001404565b6000828152600260205260409020546001600160a01b0316620011d55760405162461bcd60e51b815260206004820152602e60248201527f45524337323155524953746f726167653a2055524920736574206f66206e6f6e60448201526d32bc34b9ba32b73a103a37b5b2b760911b60648201526084016200048e565b6000828152600660205260409020620011ef828262001cc7565b506040518281527ff8e1a15aba9398e019f0b49df1a4fde98ee17ae345cb5f6b5e2c27f5033e8ce79060200160405180910390a15050565b60006001600160e01b031982166380ac58cd60e01b14806200125957506001600160e01b03198216635b5e139f60e01b145b806200034e57506301ffc9a760e01b6001600160e01b03198316146200034e565b60006001600160a01b0384163b156200137d57604051630a85bd0160e11b81526001600160a01b0385169063150b7a0290620012c190339089908890889060040162001d94565b6020604051808303816000875af1925050508015620012ff575060408051601f3d908101601f19168201909252620012fc9181019062001dd2565b60015b62001362573d80801562001330576040519150601f19603f3d011682016040523d82523d6000602084013e62001335565b606091505b5080516000036200135a5760405162461bcd60e51b81526004016200048e9062001c18565b805181602001fd5b6001600160e01b031916630a85bd0160e11b14905062000c16565b506001949350505050565b6060620013958262000ac0565b6000620013ad60408051602081019091526000815290565b90506000815111620013cf576040518060200160405280600081525062000f12565b80620013db846200143e565b604051602001620013ee92919062001b8a565b6040516020818303038152906040529392505050565b620014108383620014d8565b6200141f60008484846200127a565b620005365760405162461bcd60e51b81526004016200048e9062001c18565b606060006200144d8362001669565b600101905060008167ffffffffffffffff81111562001470576200147062001957565b6040519080825280601f01601f1916602001820160405280156200149b576020820181803683370190505b5090508181016020015b600019016f181899199a1a9b1b9c1cb0b131b232b360811b600a86061a8153600a8504945084620014a557509392505050565b6001600160a01b038216620015305760405162461bcd60e51b815260206004820181905260248201527f4552433732313a206d696e7420746f20746865207a65726f206164647265737360448201526064016200048e565b6000818152600260205260409020546001600160a01b031615620015975760405162461bcd60e51b815260206004820152601c60248201527f4552433732313a20746f6b656e20616c7265616479206d696e7465640000000060448201526064016200048e565b6000818152600260205260409020546001600160a01b031615620015fe5760405162461bcd60e51b815260206004820152601c60248201527f4552433732313a20746f6b656e20616c7265616479206d696e7465640000000060448201526064016200048e565b6001600160a01b038216600081815260036020908152604080832080546001019055848352600290915280822080546001600160a01b0319168417905551839291907fddf252ad1be2c89b69c2b068fc378daa952ba7f163c4a11628f55a4df523b3ef908290a45050565b6000807a184f03e93ff9f4daa797ed6e38ed64bf6a1f0100000000000000008310620016b3577a184f03e93ff9f4daa797ed6e38ed64bf6a1f010000000000000000830492506040015b6d04ee2d6d415b85acef81000000008310620016e0576d04ee2d6d415b85acef8100000000830492506020015b662386f26fc100008310620016ff57662386f26fc10000830492506010015b6305f5e100831062001718576305f5e100830492506008015b61271083106200172d57612710830492506004015b6064831062001740576064830492506002015b600a83106200034e5760010192915050565b6125798062001df383390190565b6001600160e01b03198116811462000b2657600080fd5b6000602082840312156200178a57600080fd5b813562000f128162001760565b60005b83811015620017b45781810151838201526020016200179a565b50506000910152565b60008151808452620017d781602086016020860162001797565b601f01601f19169290920160200192915050565b60208152600062000f126020830184620017bd565b6000602082840312156200181357600080fd5b5035919050565b80356001600160a01b03811681146200183257600080fd5b919050565b600080604083850312156200184b57600080fd5b62001856836200181a565b946020939093013593505050565b6000806000606084860312156200187a57600080fd5b62001885846200181a565b925062001895602085016200181a565b9150604084013590509250925092565b600060208284031215620018b857600080fd5b62000f12826200181a565b803580151581146200183257600080fd5b60008060008060808587031215620018eb57600080fd5b620018f6856200181a565b935060208501359250604085013591506200191460608601620018c3565b905092959194509250565b600080604083850312156200193357600080fd5b6200193e836200181a565b91506200194e60208401620018c3565b90509250929050565b634e487b7160e01b600052604160045260246000fd5b600067ffffffffffffffff808411156200198b576200198b62001957565b604051601f8501601f19908116603f01168101908282118183101715620019b657620019b662001957565b81604052809350858152868686011115620019d057600080fd5b858560208301376000602087830101525050509392505050565b6000806000806080858703121562001a0157600080fd5b62001a0c856200181a565b935062001a1c602086016200181a565b925060408501359150606085013567ffffffffffffffff81111562001a4057600080fd5b8501601f8101871362001a5257600080fd5b62001a63878235602084016200196d565b91505092959194509250565b600082601f83011262001a8157600080fd5b62000f12838335602085016200196d565b6000806040838503121562001aa657600080fd5b62001ab1836200181a565b9150602083013567ffffffffffffffff81111562001ace57600080fd5b62001adc8582860162001a6f565b9150509250929050565b6000806040838503121562001afa57600080fd5b62001b05836200181a565b91506200194e602084016200181a565b60006020828403121562001b2857600080fd5b813567ffffffffffffffff81111562001b4057600080fd5b62000c168482850162001a6f565b600181811c9082168062001b6357607f821691505b60208210810362001b8457634e487b7160e01b600052602260045260246000fd5b50919050565b6000835162001b9e81846020880162001797565b83519083019062001bb481836020880162001797565b01949350505050565b60006001820162001bde57634e487b7160e01b600052601160045260246000fd5b5060010190565b6001600160a01b038416815282602082015260606040820152600062001c0f6060830184620017bd565b95945050505050565b60208082526032908201527f4552433732313a207472616e7366657220746f206e6f6e20455243373231526560408201527f63656976657220696d706c656d656e7465720000000000000000000000000000606082015260800190565b601f8211156200053657600081815260208120601f850160051c8101602086101562001c9e5750805b601f850160051c820191505b8181101562001cbf5782815560010162001caa565b505050505050565b815167ffffffffffffffff81111562001ce45762001ce462001957565b62001cfc8162001cf5845462001b4e565b8462001c75565b602080601f83116001811462001d34576000841562001d1b5750858301515b600019600386901b1c1916600185901b17855562001cbf565b600085815260208120601f198616915b8281101562001d655788860151825594840194600190910190840162001d44565b508582101562001d845787850151600019600388901b60f8161c191681555b5050505050600190811b01905550565b60006001600160a01b0380871683528086166020840152508360408301526080606083015262001dc86080830184620017bd565b9695505050505050565b60006020828403121562001de557600080fd5b815162000f12816200176056fe60806040523480156200001157600080fd5b5060405162002579380380620025798339810160408190526200003491620000cd565b6040518060400160405280600d81526020016c466f7274756e65436f6f6b696560981b8152506040518060400160405280600381526020016246434f60e81b8152508160009081620000879190620001b1565b506001620000968282620001b1565b505050600a91909155600b80546001600160a01b0319166001600160a01b0390921691909117905546600d556000600f556200027d565b60008060408385031215620000e157600080fd5b825160208401519092506001600160a01b03811681146200010157600080fd5b809150509250929050565b634e487b7160e01b600052604160045260246000fd5b600181811c908216806200013757607f821691505b6020821081036200015857634e487b7160e01b600052602260045260246000fd5b50919050565b601f821115620001ac57600081815260208120601f850160051c81016020861015620001875750805b601f850160051c820191505b81811015620001a85782815560010162000193565b5050505b505050565b81516001600160401b03811115620001cd57620001cd6200010c565b620001e581620001de845462000122565b846200015e565b602080601f8311600181146200021d5760008415620002045750858301515b600019600386901b1c1916600185901b178555620001a8565b600085815260208120601f198616915b828110156200024e578886015182559484019460019091019084016200022d565b50858210156200026d5787850151600019600388901b60f8161c191681555b5050505050600190811b01905550565b6122ec806200028d6000396000f3fe6080604052600436106101965760003560e01c80634f6ccce7116100e157806395d89b411161008a578063b88d4fde11610064578063b88d4fde14610470578063c87b56dd14610490578063e985e9c5146104b0578063fbd835ba146104f957600080fd5b806395d89b4114610406578063a22cb4651461041b578063b24275181461043b57600080fd5b806370a08231116100bb57806370a08231146103b15780637ae18d77146103d1578063945c8ec8146103f357600080fd5b80634f6ccce71461035c5780636352211e1461037c5780636c9c2faf1461039c57600080fd5b806318160ddd116101435780632f745c591161011d5780632f745c5914610307578063382a0af81461032757806342842e0e1461033c57600080fd5b806318160ddd146102b357806323b872dd146102d25780632e645771146102f257600080fd5b8063095ea7b311610174578063095ea7b31461022a578063104409041461024c578063150b7a021461026e57600080fd5b806301ffc9a71461019b57806306fdde03146101d0578063081812fc146101f2575b600080fd5b3480156101a757600080fd5b506101bb6101b6366004611bf3565b610519565b60405190151581526020015b60405180910390f35b3480156101dc57600080fd5b506101e561052a565b6040516101c79190611c60565b3480156101fe57600080fd5b5061021261020d366004611c73565b6105bc565b6040516001600160a01b0390911681526020016101c7565b34801561023657600080fd5b5061024a610245366004611ca8565b6105e3565b005b34801561025857600080fd5b506102616106fd565b6040516101c79190611cd2565b34801561027a57600080fd5b5061029a610289366004611d66565b630a85bd0160e11b95945050505050565b6040516001600160e01b031990911681526020016101c7565b3480156102bf57600080fd5b506008545b6040519081526020016101c7565b3480156102de57600080fd5b5061024a6102ed366004611e01565b6108ab565b3480156102fe57600080fd5b5061024a610922565b34801561031357600080fd5b506102c4610322366004611ca8565b6109f1565b34801561033357600080fd5b5061024a610a87565b34801561034857600080fd5b5061024a610357366004611e01565b610b52565b34801561036857600080fd5b506102c4610377366004611c73565b610b6d565b34801561038857600080fd5b50610212610397366004611c73565b610c00565b3480156103a857600080fd5b506102c4610c65565b3480156103bd57600080fd5b506102c46103cc366004611e3d565b610c75565b3480156103dd57600080fd5b506103e6610cfb565b6040516101c79190611e58565b61024a610401366004611eb5565b610d5c565b34801561041257600080fd5b506101e5610e7c565b34801561042757600080fd5b5061024a610436366004611ed0565b610e8b565b34801561044757600080fd5b50600d54600e54600f546040805193845260ff90921615156020840152908201526060016101c7565b34801561047c57600080fd5b5061024a61048b366004611f8f565b610e9a565b34801561049c57600080fd5b506101e56104ab366004611c73565b610f18565b3480156104bc57600080fd5b506101bb6104cb36600461200b565b6001600160a01b03918216600090815260056020908152604080832093909416825291909152205460ff1690565b34801561050557600080fd5b5061024a610514366004612035565b610f8c565b60006105248261109b565b92915050565b6060600080546105399061207e565b80601f01602080910402602001604051908101604052809291908181526020018280546105659061207e565b80156105b25780601f10610587576101008083540402835291602001916105b2565b820191906000526020600020905b81548152906001019060200180831161059557829003601f168201915b5050505050905090565b60006105c7826110c0565b506000908152600460205260409020546001600160a01b031690565b60006105ee82610c00565b9050806001600160a01b0316836001600160a01b0316036106605760405162461bcd60e51b815260206004820152602160248201527f4552433732313a20617070726f76616c20746f2063757272656e74206f776e656044820152603960f91b60648201526084015b60405180910390fd5b336001600160a01b038216148061067c575061067c81336104cb565b6106ee5760405162461bcd60e51b815260206004820152603d60248201527f4552433732313a20617070726f76652063616c6c6572206973206e6f7420746f60448201527f6b656e206f776e6572206f7220617070726f76656420666f7220616c6c0000006064820152608401610657565b6106f88383611127565b505050565b60606000600f5467ffffffffffffffff81111561071c5761071c611f03565b60405190808252806020026020018201604052801561078157816020015b61076e60405180608001604052806000815260200160006001600160a01b0316815260200160008152602001606081525090565b81526020019060019003908161073a5790505b50905060015b600f5481116108a55760008181526010602090815260409182902082516080810184528154815260018201546001600160a01b0316928101929092526002810154928201929092526003820180549192916060840191906107e79061207e565b80601f01602080910402602001604051908101604052809291908181526020018280546108139061207e565b80156108605780601f1061083557610100808354040283529160200191610860565b820191906000526020600020905b81548152906001019060200180831161084357829003601f168201915b5050505050815250508260018361087791906120c8565b81518110610887576108876120db565b6020026020010181905250808061089d906120f1565b915050610787565b50919050565b6108b53382611195565b6109175760405162461bcd60e51b815260206004820152602d60248201527f4552433732313a2063616c6c6572206973206e6f7420746f6b656e206f776e6560448201526c1c881bdc88185c1c1c9bdd9959609a1b6064820152608401610657565b6106f8838383611214565b600b546001600160a01b0316331461098f5760405162461bcd60e51b815260206004820152602a60248201527f4f6e6c792074686520436f6f6b6965204f776e65722063616e20737461727420604482015269074686520476f737369760b41b6064820152608401610657565b600e5460ff16156109e25760405162461bcd60e51b815260206004820152601b60248201527f476f737369702068617320616c726561647920737461727465642e00000000006044820152606401610657565b600e805460ff19166001179055565b60006109fc83610c75565b8210610a5e5760405162461bcd60e51b815260206004820152602b60248201527f455243373231456e756d657261626c653a206f776e657220696e646578206f7560448201526a74206f6620626f756e647360a81b6064820152608401610657565b506001600160a01b03919091166000908152600660209081526040808320938352929052205490565b600b546001600160a01b03163314610af45760405162461bcd60e51b815260206004820152602a60248201527f4f6e6c792074686520436f6f6b6965204f776e65722063616e20737461727420604482015269074686520476f737369760b41b6064820152608401610657565b600e5460ff16610b465760405162461bcd60e51b815260206004820181905260248201527f476f7373697020686173206e6f74206265656e2073746172746564207965742e6044820152606401610657565b600e805460ff19169055565b6106f883838360405180602001604052806000815250610e9a565b6000610b7860085490565b8210610bdb5760405162461bcd60e51b815260206004820152602c60248201527f455243373231456e756d657261626c653a20676c6f62616c20696e646578206f60448201526b7574206f6620626f756e647360a01b6064820152608401610657565b60088281548110610bee57610bee6120db565b90600052602060002001549050919050565b6000818152600260205260408120546001600160a01b0316806105245760405162461bcd60e51b815260206004820152601860248201527f4552433732313a20696e76616c696420746f6b656e20494400000000000000006044820152606401610657565b6000610c7060085490565b905090565b60006001600160a01b038216610cdf5760405162461bcd60e51b815260206004820152602960248201527f4552433732313a2061646472657373207a65726f206973206e6f7420612076616044820152683634b21037bbb732b960b91b6064820152608401610657565b506001600160a01b031660009081526003602052604090205490565b6060600c8054806020026020016040519081016040528092919081815260200182805480156105b257602002820191906000526020600020905b81546001600160a01b03168152600190910190602001808311610d35575050505050905090565b600b546001600160a01b03163303610dc75760405162461bcd60e51b815260206004820152602860248201527f596f752063616e6e6f742073706563756c617465206f6e20796f7572206f776e60448201526720636f6f6b69652160c01b6064820152608401610657565b600e5460ff16610e3f5760405162461bcd60e51b815260206004820152603260248201527f54686520636f6f6b6965206f776e65722068617320636c6f736564207468697360448201527f2074687265616420666f7220676f7373697000000000000000000000000000006064820152608401610657565b6040805133815282151560208201527f57bf161eca343edadb6bfd98988b22edbe95c506885f2e773f815c6c23934c0f910160405180910390a150565b6060600180546105399061207e565b610e96338383611401565b5050565b610ea43383611195565b610f065760405162461bcd60e51b815260206004820152602d60248201527f4552433732313a2063616c6c6572206973206e6f7420746f6b656e206f776e6560448201526c1c881bdc88185c1c1c9bdd9959609a1b6064820152608401610657565b610f12848484846114cf565b50505050565b6060610f23826110c0565b6000610f3a60408051602081019091526000815290565b90506000815111610f5a5760405180602001604052806000815250610f85565b80610f648461154d565b604051602001610f7592919061210a565b6040516020818303038152906040525b9392505050565b600e5460ff166110045760405162461bcd60e51b815260206004820152603560248201527f506c65617365207761697420666f722074686520436f6f6b6965204f776e657260448201527f20746f2073746172742074686520476f737369702e00000000000000000000006064820152608401610657565b60408051608081018252600f54808252336020808401918252428486019081526060850187815260009485526010909252949092208351815590516001820180546001600160a01b0319166001600160a01b03909216919091179055925160028401555190918291600382019061107b9082612187565b5050600f80549150600061108e836120f1565b9190505550610e966115e0565b60006001600160e01b0319821663780e9d6360e01b1480610524575061052482611687565b6000818152600260205260409020546001600160a01b03166111245760405162461bcd60e51b815260206004820152601860248201527f4552433732313a20696e76616c696420746f6b656e20494400000000000000006044820152606401610657565b50565b600081815260046020526040902080546001600160a01b0319166001600160a01b038416908117909155819061115c82610c00565b6001600160a01b03167f8c5be1e5ebec7d5bd14f71427d1e84f3dd0314c0f7b2291e5b200ac8c7c3b92560405160405180910390a45050565b6000806111a183610c00565b9050806001600160a01b0316846001600160a01b031614806111e857506001600160a01b0380821660009081526005602090815260408083209388168352929052205460ff165b8061120c5750836001600160a01b0316611201846105bc565b6001600160a01b0316145b949350505050565b826001600160a01b031661122782610c00565b6001600160a01b03161461128b5760405162461bcd60e51b815260206004820152602560248201527f4552433732313a207472616e736665722066726f6d20696e636f72726563742060448201526437bbb732b960d91b6064820152608401610657565b6001600160a01b0382166112ed5760405162461bcd60e51b8152602060048201526024808201527f4552433732313a207472616e7366657220746f20746865207a65726f206164646044820152637265737360e01b6064820152608401610657565b6112fa83838360016116d7565b826001600160a01b031661130d82610c00565b6001600160a01b0316146113715760405162461bcd60e51b815260206004820152602560248201527f4552433732313a207472616e736665722066726f6d20696e636f72726563742060448201526437bbb732b960d91b6064820152608401610657565b600081815260046020908152604080832080546001600160a01b03199081169091556001600160a01b0387811680865260038552838620805460001901905590871680865283862080546001019055868652600290945282852080549092168417909155905184937fddf252ad1be2c89b69c2b068fc378daa952ba7f163c4a11628f55a4df523b3ef91a4505050565b816001600160a01b0316836001600160a01b0316036114625760405162461bcd60e51b815260206004820152601960248201527f4552433732313a20617070726f766520746f2063616c6c6572000000000000006044820152606401610657565b6001600160a01b03838116600081815260056020908152604080832094871680845294825291829020805460ff191686151590811790915591519182527f17307eab39ab6107e8899845ad3d59bd9653f200f220920489ca2b5937696c31910160405180910390a3505050565b6114da848484611214565b6114e6848484846116e3565b610f125760405162461bcd60e51b815260206004820152603260248201527f4552433732313a207472616e7366657220746f206e6f6e20455243373231526560448201527131b2b4bb32b91034b6b83632b6b2b73a32b960711b6064820152608401610657565b6060600061155a8361182f565b600101905060008167ffffffffffffffff81111561157a5761157a611f03565b6040519080825280601f01601f1916602001820160405280156115a4576020820181803683370190505b5090508181016020015b600019016f181899199a1a9b1b9c1cb0b131b232b360811b600a86061a8153600a85049450846115ae57509392505050565b6000805b600c5481101561163c57336001600160a01b0316600c828154811061160b5761160b6120db565b6000918252602090912001546001600160a01b03160361162a57600191505b80611634816120f1565b9150506115e4565b508061112457600c80546001810182556000919091527fdf6966c971051c3d54ec59162606531493a51404a002842f56009d7e5cf4a8c70180546001600160a01b0319163317905550565b60006001600160e01b031982166380ac58cd60e01b14806116b857506001600160e01b03198216635b5e139f60e01b145b8061052457506301ffc9a760e01b6001600160e01b0319831614610524565b610f1284848484611911565b60006001600160a01b0384163b1561182457604051630a85bd0160e11b81526001600160a01b0385169063150b7a0290611727903390899088908890600401612247565b6020604051808303816000875af1925050508015611762575060408051601f3d908101601f1916820190925261175f91810190612283565b60015b61180a573d808015611790576040519150601f19603f3d011682016040523d82523d6000602084013e611795565b606091505b5080516000036118025760405162461bcd60e51b815260206004820152603260248201527f4552433732313a207472616e7366657220746f206e6f6e20455243373231526560448201527131b2b4bb32b91034b6b83632b6b2b73a32b960711b6064820152608401610657565b805181602001fd5b6001600160e01b031916630a85bd0160e11b14905061120c565b506001949350505050565b6000807a184f03e93ff9f4daa797ed6e38ed64bf6a1f0100000000000000008310611878577a184f03e93ff9f4daa797ed6e38ed64bf6a1f010000000000000000830492506040015b6d04ee2d6d415b85acef810000000083106118a4576d04ee2d6d415b85acef8100000000830492506020015b662386f26fc1000083106118c257662386f26fc10000830492506010015b6305f5e10083106118da576305f5e100830492506008015b61271083106118ee57612710830492506004015b60648310611900576064830492506002015b600a83106105245760010192915050565b60018111156119885760405162461bcd60e51b815260206004820152603560248201527f455243373231456e756d657261626c653a20636f6e736563757469766520747260448201527f616e7366657273206e6f7420737570706f7274656400000000000000000000006064820152608401610657565b816001600160a01b0385166119e4576119df81600880546000838152600960205260408120829055600182018355919091527ff3f7a9fe364faab93b216da50a3214154f22a0a2b415b23a84c8169e8b636ee30155565b611a07565b836001600160a01b0316856001600160a01b031614611a0757611a078582611a4d565b6001600160a01b038416611a2357611a1e81611aea565b611a46565b846001600160a01b0316846001600160a01b031614611a4657611a468482611b99565b5050505050565b60006001611a5a84610c75565b611a6491906120c8565b600083815260076020526040902054909150808214611ab7576001600160a01b03841660009081526006602090815260408083208584528252808320548484528184208190558352600790915290208190555b5060009182526007602090815260408084208490556001600160a01b039094168352600681528383209183525290812055565b600854600090611afc906001906120c8565b60008381526009602052604081205460088054939450909284908110611b2457611b246120db565b906000526020600020015490508060088381548110611b4557611b456120db565b6000918252602080832090910192909255828152600990915260408082208490558582528120556008805480611b7d57611b7d6122a0565b6001900381819060005260206000200160009055905550505050565b6000611ba483610c75565b6001600160a01b039093166000908152600660209081526040808320868452825280832085905593825260079052919091209190915550565b6001600160e01b03198116811461112457600080fd5b600060208284031215611c0557600080fd5b8135610f8581611bdd565b60005b83811015611c2b578181015183820152602001611c13565b50506000910152565b60008151808452611c4c816020860160208601611c10565b601f01601f19169290920160200192915050565b602081526000610f856020830184611c34565b600060208284031215611c8557600080fd5b5035919050565b80356001600160a01b0381168114611ca357600080fd5b919050565b60008060408385031215611cbb57600080fd5b611cc483611c8c565b946020939093013593505050565b60006020808301818452808551808352604092508286019150828160051b87010184880160005b83811015611d5857888303603f19018552815180518452878101516001600160a01b0316888501528681015187850152606090810151608091850182905290611d4481860183611c34565b968901969450505090860190600101611cf9565b509098975050505050505050565b600080600080600060808688031215611d7e57600080fd5b611d8786611c8c565b9450611d9560208701611c8c565b935060408601359250606086013567ffffffffffffffff80821115611db957600080fd5b818801915088601f830112611dcd57600080fd5b813581811115611ddc57600080fd5b896020828501011115611dee57600080fd5b9699959850939650602001949392505050565b600080600060608486031215611e1657600080fd5b611e1f84611c8c565b9250611e2d60208501611c8c565b9150604084013590509250925092565b600060208284031215611e4f57600080fd5b610f8582611c8c565b6020808252825182820181905260009190848201906040850190845b81811015611e995783516001600160a01b031683529284019291840191600101611e74565b50909695505050505050565b80358015158114611ca357600080fd5b600060208284031215611ec757600080fd5b610f8582611ea5565b60008060408385031215611ee357600080fd5b611eec83611c8c565b9150611efa60208401611ea5565b90509250929050565b634e487b7160e01b600052604160045260246000fd5b600067ffffffffffffffff80841115611f3457611f34611f03565b604051601f8501601f19908116603f01168101908282118183101715611f5c57611f5c611f03565b81604052809350858152868686011115611f7557600080fd5b858560208301376000602087830101525050509392505050565b60008060008060808587031215611fa557600080fd5b611fae85611c8c565b9350611fbc60208601611c8c565b925060408501359150606085013567ffffffffffffffff811115611fdf57600080fd5b8501601f81018713611ff057600080fd5b611fff87823560208401611f19565b91505092959194509250565b6000806040838503121561201e57600080fd5b61202783611c8c565b9150611efa60208401611c8c565b60006020828403121561204757600080fd5b813567ffffffffffffffff81111561205e57600080fd5b8201601f8101841361206f57600080fd5b61120c84823560208401611f19565b600181811c9082168061209257607f821691505b6020821081036108a557634e487b7160e01b600052602260045260246000fd5b634e487b7160e01b600052601160045260246000fd5b81810381811115610524576105246120b2565b634e487b7160e01b600052603260045260246000fd5b600060018201612103576121036120b2565b5060010190565b6000835161211c818460208801611c10565b835190830190612130818360208801611c10565b01949350505050565b601f8211156106f857600081815260208120601f850160051c810160208610156121605750805b601f850160051c820191505b8181101561217f5782815560010161216c565b505050505050565b815167ffffffffffffffff8111156121a1576121a1611f03565b6121b5816121af845461207e565b84612139565b602080601f8311600181146121ea57600084156121d25750858301515b600019600386901b1c1916600185901b17855561217f565b600085815260208120601f198616915b82811015612219578886015182559484019460019091019084016121fa565b50858210156122375787850151600019600388901b60f8161c191681555b5050505050600190811b01905550565b60006001600160a01b038087168352808616602084015250836040830152608060608301526122796080830184611c34565b9695505050505050565b60006020828403121561229557600080fd5b8151610f8581611bdd565b634e487b7160e01b600052603160045260246000fdfea264697066735822122046a3b5e4f3982d852b29fd3763f7e7d4ea168d3e109bd4eeabd9520d1969783664736f6c63430008140033a2646970667358221220759ba18d7e5941623fc1476fd38b2d806f60cbf199e2ac6fa159da55fb26e1f164736f6c63430008140033",
  "linkReferences": {},
  "deployedLinkReferences": {}
}